:020000040800F2
:10000000B00C002029020008173200085123000814
:10001000153200081F040008C13600080000000067
:100020000000000000000000000000001B3200087B
:10003000F504000800000000193200081D32000815
:10004000430200084302000843020008430200087C
:10005000430200084302000843020008430200086C
:10006000430200084302000843020008210400087C
:10007000430200082D040008430200083904000868
:100080004302000845040008430200084302000838
:10009000430200084302000843020008430200082C
:1000A000430200084302000843020008430200081C
:1000B00043020008430200084302000861230008CD
:1000C00055230008430200084302000843020008C9
:1000D00043020008430200084302000843020008EC
:1000E00043020008430200084302000843020008DC
:1000F00043020008430200084302000843020008CC
:1001000043020008430200084302000843020008BB
:10011000AD32000843020008430200084302000811
:10012000430200084302000843020008430200089B
:10013000430200084302000843020008430200088B
:10014000430200084302000843020008430200087B
:10015000430200084302000843020008430200086B
:10016000430200084302000843020008430200085B
:100170004302000843020008430200080000000098
:10018000430200084302000800F002F800F03CF8C7
:100190000AA090E8000C82448344AAF10107DA45E2
:1001A00001D100F031F8AFF2090EBAE80F0013F0F8
:1001B000010F18BFFB1A43F001031847383A00003B
:1001C000583A0000103A24BF78C878C1FAD85207CC
:1001D00024BF30C830C144BF04680C6070470000C1
:1001E0000023002400250026103A28BF78C1FBD840
:1001F000520728BF30C148BF0B6070471FB503F0DE
:10020000E3FC1FBD10B510BD00F0CFF81146FFF79D
:10021000F5FF03F0CDFA00F0EDF803B4FFF7F2FFBD
:1002200003BC00F0F5F80000094880470948004782
:10023000FEE7FEE7FEE7FEE7FEE7FEE7FEE7FEE796
:10024000FEE7FEE704480549054A064B70470000F3
:100250009D32000889010008B0060020B00C002083
:10026000B0080020B008002053EA020C00F06980BA
:100270002DE9F04B4FF00006002B1FBFB3FA83F5BA
:1002800003FA05F424FA05F65E4012BF1643B2FAEB
:1002900082F502FA05F4C5F120051EBF22FA05FC1D
:1002A00044EA0C04203556EA044C4FEA144418BFC3
:1002B000641C4FF000084FF00009904271EB030CF2
:1002C00039D3002919BFB1FA81F701FA07F6B0FA5C
:1002D00080F700FA07F6C7F120071EBF20FA07FCD7
:1002E00046EA0C062037B6FBF4FCA7EB0507103FE7
:1002F00007F01F0BCBF120060CFA0BFB2CFA06F6CD
:1003000044BFB3460026202FA4BF5E464FF0000B2B
:100310005BEA060C08BF4FF0010B19EB0B09ABFBB6
:10032000027C48EB0608C01B06FB02CC0BFB03CC8F
:1003300071EB0C01C1E70B46024641464846BDE859
:10034000F08B13B54FF000004FF00001AFF30080C9
:10035000BDE81C4070474FF0000200B513469446BC
:100360009646203922BFA0E80C50A0E80C50B1F10D
:100370002001BFF4F7AF090728BFA0E80C5048BF21
:100380000CC05DF804EB890028BF40F8042B08BFBF
:10039000704748BF20F8022B11F0804F18BF00F8BB
:1003A000012B7047704770477047754600F02CF876
:1003B000AE4605006946534620F00700854618B052
:1003C00020B5FFF73FFFBDE820404FF000064FF09B
:1003D00000074FF000084FF0000B21F00701AC467A
:1003E000ACE8C009ACE8C009ACE8C009ACE8C00999
:1003F0008D46704710B50446AFF300802046BDE837
:100400001040FFF70ABF0000004870475006002068
:1004100001491820ABBEFEE7260002007047FEE748
:10042000014800F0FBB8000030050020014800F052
:10043000F5B80000B0000020014800F0EFB800005F
:10044000F0050020014800F0E9B800009005002008
:1004500001681823CAB2103AB2FBF3F2054B6FF3EE
:100460000901032A9B5CC36500D9091D8165084603
:1004700070470000D23B000810B5014600208B6990
:100480008A6A4FF0C07453B1B3F5005F15D072B1F2
:10049000012A0CD0022A0AD0032A09D104E01AB199
:1004A000012A06D0022A03D1C96AC90100D5012058
:1004B00010BDC96AA142FAD010BD002AF7D0012AA6
:1004C000F2D0022AF3D0032AF3D010BD30B504686D
:1004D000256825F480252560046863608368402BC7
:1004E000036803D099600068C26030BD9A600068FC
:1004F000C16030BD704772B6FEE72DE9F041044699
:10050000876D00F0C1FB064694F8350000250228EF
:1005100006D08020606584F834500120BDE8F08169
:100520002068016821F0160101602068416921F00E
:1005300080014161206C08B9A06C20B1206801687D
:1005400021F0080101602068016821F001010160CB
:100550000CE000F099FB801B052807D9202060657E
:10056000032084F8350084F83450D7E72068006809
:10057000C007EED194F85C103F208840B86001209D
:1005800084F8350084F834500020C7E790F835101F
:10059000022903D08021416501207047052180F8A0
:1005A00035100068016821F00101016000207047EA
:1005B00070B504002BD094F83500022826D02068AE
:1005C000016821F0010101602068002505602068B4
:1005D0004560206885602068C560206805612168E5
:1005E000212048612046FFF733FFE56325646564F9
:1005F000A564E564256594F85C203F219140816005
:10060000656584F8355084F83450002070BD0120B1
:1006100070BD406D704790F8350070472DE9F84384
:1006200004464FF00009CDF8009063484FF416518E
:10063000A56D0068B0FBF1F72E6894F85C100820F7
:1006400000FA01F131420FD021680A6852070BD538
:100650000A6822F004020A6094F85C108840A860DE
:10066000606D40F00100606594F85C104FF0010887
:1006700008FA01F0304208D021684969090604D51A
:10068000A860606D40F00200606594F85C10042082
:100690008840304208D021680968890704D5A860DD
:1006A000606D40F00400606594F85C101020884094
:1006B000304218D021680968090714D5A86020685D
:1006C0000168490304D50068000308D5A16C07E060
:1006D0000168C90503D4016821F008010160216C9B
:1006E00009B12046884794F85C10202088403042A9
:1006F00031D021680968C9062DD5A86094F8350065
:1007000005282068016806D0490347D50068000322
:100710001DD4616C1CE021F0160101602068416964
:1007200021F080014161206C08B9A06C20B12068E3
:10073000016821F00801016094F85C103F208840B6
:10074000A86084F8358084F83490216D1FE0E16B57
:1007500009B120468847606D00282BD0606DC00726
:1007600014D0052084F835002068016821F00101CB
:1007700001600098401C0090B84203D820680068CF
:10078000C007F6D184F8358084F83490E16C0029F4
:1007900010D001B02046BDE8F04308470168C90504
:1007A000D5D4016821F01001016084F8358084F807
:1007B0003490CCE7BDE8F883140000202DE9F04127
:1007C000044600F061FA06465CB1022084F8350068
:1007D000002584F834502068016821F0010101608F
:1007E0000DE00120BDE8F08100F04EFA801B0528E5
:1007F00005D920206065032084F83500F2E72068E1
:100800000068C007F0D12268116820480140D4E98F
:1008100001031843D4E9033633431843636918438B
:10082000A3691843E3691843236A18430843616ABC
:10083000042903D1D4E90B1319430843106020683D
:100840004069666A20F0070130460E4301270428FC
:100850000CD1A06A0643E06A40B12046FFF70CFEC7
:1008600020B14020606584F83570BAE720684661A1
:100870002046FFF7EDFD94F85C203F219140816018
:10088000656584F835700020ACE700003F8010F00B
:100890002DE9F0410446866D90F8340000250128CA
:1008A0000DD0012084F8340094F835700020012F19
:1008B00007D084F8340002252846BDE8F0810220E4
:1008C000FBE7022784F8357060652046FFF7FEFDE0
:1008D00094F85C103F208840B0602068016841F0C7
:1008E00016010160206C20B12068016841F0080108
:1008F00001602068016841F001010160DCE700004F
:1009000070B5044600F0C0F90546601C02D00448EA
:100910000078044400F0B8F9401BA042FAD370BD3F
:10092000080000202DE9F04F0022DFF838B1012641
:100930004FF00F0906FA02F401EA0403A3427DD145
:1009400022F003075F44D7F8088895074FEA157C23
:1009500009FA0CFA0AEA0805DFF80C81404502D1D1
:100960004FF0000832E0DFF80481404502D14FF03B
:1009700001082BE0DFF8F880404502D14FF0020873
:1009800024E0DFF8F080404502D14FF003081DE07D
:10099000DFF8E480404502D14FF0040816E0DFF8AC
:1009A000DC80404502D14FF005080FE0DFF8D08031
:1009B000404502D14FF0060808E0DFF8C880404506
:1009C00002D14FF0070801E04FF0080808FA0CF8D0
:1009D000A84522D12C4DD5F800C02CEA030CC5F84F
:1009E00000C005F1040CDCF800509D43CCF8005029
:1009F0000CF10405D5F800C02CEA030CC5F800C0C2
:100A00002D1DD5F800C02CEA030CC5F800C0D7F89E
:100A1000085825EA0A05C7F808580568570003234F
:100A2000BB409D430560D50800EB8505D5F820C087
:100A300057074FEAD76809FA08F700E00CE02CEAFC
:100A4000070CC5F820C0C5689D43C5604568A5432F
:100A5000456084689C438460521C102AFFF46AAF8E
:100A6000BDE8F08F00300140000002400004024069
:100A700000080240000C0240001002400014024036
:100A800000180240001C0240003C01402DE9F84FD4
:100A9000DFF8BCA1002201250AF1040B03264FF068
:100AA0000F090BF1040E00BF0B6805FA02F4234096
:100AB000A34270D10F7907F00307012F01D0022F55
:100AC00016D187684FEA420806FA08FC27EA0C07A5
:100AD000D1F80CC00CFA08FC4CEA070CC0F808C0AE
:100AE0004768A7430C79C4F3001494403C43446026
:100AF0000C79E443A4070AD0C4684FEA420C06FA12
:100B00000CF7BC438F6807FA0CF72743C7600C79D2
:100B100004F00304022C12D1D40800EB840CDCF89E
:100B200020405707FF0E09FA07F824EA0804D1F815
:100B3000108008FA07F848EA0408CCF82080046816
:100B40004FEA420C06FA0CF7BC430F7907F0030793
:100B500007FA0CF7274307604C6814F4403F70D045
:100B60003C4C276847F480472760246822F003073D
:100B700004F480440094384C07EB040CDCF808487B
:100B800097074FEA177809FA08F7BC43334FB84282
:100B900002D1002724E054E0314FB84201D10127AF
:100BA0001EE0304FB84201D1022719E02E4FB84263
:100BB00001D1032714E02D4FB84201D104270FE0E3
:100BC0002B4FB84201D105270AE02A4FB84201D184
:100BD000062705E0284FB84201D1072700E0082783
:100BE00007FA08F72743CCF80878DAF800405746A8
:100BF000D1F804C09C435FEACC3C00D51C433C6068
:100C0000DBF800405F46D1F804C09C435FEA8C3CAF
:100C100000D51C433C60DEF800407746D1F804C0A4
:100C20009C435FEACC2C00D51C433C60084F0C373A
:100C30003C68D1F804C09C435FEA8C2C00D51C436F
:100C40003C60521C102AFFF42FAFBDE8F88F000063
:100C5000003C0140443802400030014000000240A6
:100C60000004024000080240000C02400010024054
:100C70000014024000180240001C02400AB18161C9
:100C800070470904FBE700000148806870470000D6
:100C900008000020704770472DE9F04101680446C4
:100CA0004A694E6890F83E000025D743FA0506D4FD
:100CB000F243D20503D46FF4807201254A61B9056D
:100CC00008D4F143C90505D422686FF4007145F0DA
:100CD00002055161790525D4F143C90522D4638DFC
:100CE00094F83D10226B202808D13BB9212910D05F
:100CF00029290ED0282901D1212A0AD022686FF48F
:100D00008061516145F00405102806D0402804D0C8
:100D100008E0204602F084F804E02068016841F40D
:100D200000710160380508D4F043C00505D421687E
:100D30006FF4006045F008054861002D07D0206C75
:100D4000284320642046BDE8F04101F013BCBDE813
:100D5000F0812DE9F047026800215368C66A90F8D7
:100D60003E4090F83D50102C12D0402C10D0046C16
:100D7000002C7DD05469E443A6077AD4DE43B6053F
:100D800077D4036C03B19169BDE8F04702F024B851
:100D9000976951694FF42A0CC9435FEAC1784FF053
:100DA0002A4904D066452AD04E4528D010E0DE43BB
:100DB000B6050DD4C16A614501D1012103E0C16AC4
:100DC000494501D10821C162BDE8F04701F09CBE50
:100DD0000E0716D4DE43B60513D4416CC9B21161B7
:100DE000416B09B1C96B29B9816B002907D0C96B67
:100DF000002904D00068416841F400614160BDE809
:100E0000F0878E0706D4DE43B60503D4BDE8F0476D
:100E100001F0EEBDFE43526876074FEA02521DD440
:100E2000002AECDB0A0608D4DA43520505D4490748
:100E300005D5BDE8F04701F07FBD4907DFD4D943B0
:100E40008905DCD4212D05D0402CD8D1BDE8F04750
:100E500001F0A0BEBDE8F04701F02CBD002ACEDBBA
:100E60004A060BD4DA43520508D4490708D501E0F5
:100E70000DE00EE0BDE8F04701F0A8BC4907BED484
:100E8000D9438905BBD4BDE8F04701F036BC916970
:100E900070E7E10606D4D943890503D4BDE8F047DD
:100EA00002F000B82821212D27D0292D25D0650654
:100EB00055D4DD436D0552D4640752D590F83D30CA
:100EC000448D002C9BD01269446A2270426A521CE5
:100ED0004262428D521E4285428D002A8FD12A2BBA
:100EE0008DD10268536823F4806353602222026329
:100EF00080F83D1000F002FC81E7250623D4DD4395
:100F00006D0520D4640720D590F83D30448D002C29
:100F1000F2D0446A24781461426A521C4262428DC3
:100F2000521E4285428D002AE6D1292BE4D1026867
:100F3000536823F4806353602122026380F83D10DC
:100F400000F0DDFB5BE76107D6D4D9438905D3D434
:100F5000418D0029D0D0416A097811610AE061070A
:100F6000CAD4D9438905C7D4418D0029C4D0116999
:100F7000426A1170416A491C4162418D491E418596
:100F80003DE7704770B5040025D094F83D0000257A
:100F900020B984F83C50204600F036FB242084F829
:100FA0003D002068016821F00101016020680168AE
:100FB00041F4004101602068016821F400410160B2
:100FC00000F0E2FC4D4A6168914201D84C4900E0D2
:100FD0004C49884201D2012070BD4B492368B0FBC7
:100FE000F1F15E6826F03F060E435E60636893424F
:100FF00006D94FF4967359434FF47A73B1FBF3F16A
:101000002368491C1E6A26F03F0631431962616855
:10101000914210D84900401EB0FBF1F2521CC2F3BD
:101020000B02042A01D2042022E0B0FBF1F0401CA4
:10103000C0F30B001CE0A268F2B301EBC10303EBA9
:101040000116431EB3FBF6F35B1C43F480431B0500
:1010500049D092B301EBC10202EB0111401EB0FB7B
:10106000F1F0401CC0F30B0040F4804040F400401D
:101070002168CA694CF6FF739A431043C861D4E9EA
:10108000071001432068026822F0C002114301608A
:10109000D4E9030101432068826848F2FF339A4390
:1010A00011438160D4E9050108432168CA6822F030
:1010B000FF021043C86001E00EE016E020680168FE
:1010C00041F0010101602564202084F83D00256382
:1010D00084F83E50002070BD01EB4106431EB3FB77
:1010E000F6F35B1CB3E70120C2E701EB4101401EB0
:1010F000B0FBF1F0401CC0F30B00B7E7A086010085
:1011000080841E0000093D0040420F002DE9FF4F82
:1011100081B089460446FFF7B7FD054694F83D00C7
:101120004FF0010820287DD1192301225049204683
:10113000009501F065FF002874D194F83C00012867
:1011400070D0012084F83C0020680168C90703D1F1
:10115000016841F0010101602068016821F400612B
:101160000160242084F83D00002626644148E062A6
:101170004FF0011B20272068016841F48071016055
:101180000095002259462046049B01F039FF50B1DA
:1011900020680068C00502D54FF400702064032069
:1011A00005B0BDE8F08F216809F0FE000861FFF787
:1011B0006BFD2168054648694969C0F34000C1F3E9
:1011C00080214FF0A00A0FE0FFF75EFD411B04985D
:1011D000814200D808B984F83DA02168486949696E
:1011E000C0F34000C1F3802194F83D20A02A02D032
:1011F00008B90029E8D084F83D7020684169C943E6
:10120000890716D4016841F40071016020684169C2
:1012100080691923012216492046009501F0F0FE4D
:10122000B8B900E021E084F83D7084F83C6000200B
:10123000B6E7016841F40071016021686FF48060D5
:101240004861192301220A492046009501F0D8FE81
:1012500008B10120A4E7039808F1010880458AD36A
:1012600084F83D7084F83C60F3E7022098E70000C2
:10127000020010000000FFFF704770477047000039
:10128000014900200870704700000020014900203B
:1012900008707047000000202DE9FC5F99469246D7
:1012A0008B460446DDF83080FFF7EEFC002506464D
:1012B000009594F83D00202872D1684846F2A811A4
:1012C00020270068B0FBF1F000EBC00101EB00103B
:1012D00000900098401E009010D020688069C043A4
:1012E0008007F6D594F83C00012859D0012084F8F5
:1012F0003C0020680168C9070AD00DE044F8305F5F
:101300006773A573206940F020002061257392E087
:10131000016841F0010101602068016821F4006169
:101320000160222084F83D00402084F83E002564BE
:10133000C4F824800D986085608D20854848E0625F
:10134000C4F844B0C4F848A0C4F84C902565208D7A
:101350004FF02308002865D0A06B10B34149C1634A
:10136000A16B4148C864A06B0564A06B4564A06B89
:101370008564A06B05652168238D1031626AA06BBE
:10138000FFF786FAB0B184F83D7084F83E5054F807
:10139000400F40F0100000BF44F8040925704AE0F7
:1013A0005AE084F83D7084F83E5054F8400F40F005
:1013B0008000F1E7CDE900864B465246594620466B
:1013C00001F038FC88B1A06BFFF7E0F8A06BC563B3
:1013D0002068016821F480610160258565852068A9
:1013E000016821F00101016025E0208D01282068BD
:1013F00013D0416841F4805141602068416981699E
:10140000009184F83C50416841F48071416020684B
:10141000416841F4006141601CE0016821F4806191
:101420000160EAE7CDE900864B4652465946204620
:1014300001F000FC10B10120BDE8FC9F206841696B
:1014400081690091016841F40071016084F83D7088
:1014500084F83C500020EFE70220EDE71400002064
:101460000000FFFF69240008292400082DE9FC5F23
:101470000025984691468A460446DDF830B000952E
:10148000FFF702FC074694F83D00202872D15A4825
:1014900046F2A81120260068B0FBF1F000EBC00175
:1014A00001EB001000900098401E009010D02068C2
:1014B0008069C0438007F6D594F83C00012859D0D4
:1014C000012084F83C0020680168C9070AD00DE0BB
:1014D00044F8305F6673A573206940F020002061F6
:1014E000257344E0016841F0010101602068016852
:1014F00021F400610160212084F83D00402084F83F
:101500003E002564C4F824B00D986085608D208568
:101510003A48E062C4F844A0C4F84890C4F84C804B
:101520002565208D00285CD0606B20B33449C163F1
:10153000616B3448C864606B0564606B4564606BC4
:101540008564606B05652268238D1032616A606B6B
:10155000FFF79EF9C0B184F83D6084F83E5054F81E
:10156000400F40F0100000BF44F80409257001202E
:10157000BDE8FC9F3EE084F83D6084F83E5054F89E
:10158000400F40F08000EFE72320CDE900074346FD
:101590004A465146204601F0CBFB88B1606BFEF70E
:1015A000F5FF606BC5632068016821F4806101600C
:1015B000258565852068016821F001010160D6E775
:1015C000206841698169009184F83C50416841F488
:1015D000807141602068416841F4006141600020F1
:1015E000C6E784F83D6084F83E5054F8400F40F060
:1015F0004000B9E70220BBE7140000200000FFFF15
:1016000069240008292400082DE9F04186B0064627
:1016100014216846FEF79FFE3249306888425DD14A
:1016200031480024016841F0020101600068694608
:1016300000F002000590C02000901220CDE90104C6
:1016400003200390042004902848FFF71FFA26483F
:101650001030016841F4001101600068254D00F46C
:1016600000100590224828604705C5E901744FF431
:101670008068C5E903486C61AC61EC612C62284666
:101680006C62FFF79BF808B1FEF735FFB563AE63F8
:101690001748194D9030E5E802074020A5E81101F0
:1016A000154845F81449AC61EC612C626C62FFF797
:1016B00085F808B1FEF71FFF7563002211461F2051
:1016C000AE6300F095F81F2000F085F80022114667
:1016D000202000F08DF8202000F07DF806B0BDE855
:1016E000F081000000540040303802400004024005
:1016F00010600240300500209005002070477047C0
:101700000248816802781144816070470800002017
:101710000B4810B5016841F400710160016841F4A3
:1017200080610160016841F480710160032000F074
:101730007FF80F2000F006F800F024F8002010BD1C
:10174000003C024070B50D4D04464FF47A71287884
:10175000B1FBF0F00A490968B1FBF0F000F01CFBA6
:1017600048B9102C07D200222146501E00F040F844
:1017700000206C6070BD012070BD000008000020DA
:10178000140000200A4808B5016841F48041016056
:10179000006800F4804000900548001F016841F097
:1017A00080510160006800F08050009008BD00008A
:1017B0004438024000280DDB00F01F020121914057
:1017C0004009800000F1E020C0F88011BFF34F8F86
:1017D000BFF36F8F7047002809DB00F01F02012163
:1017E00091404009800000F1E020C0F800117047EE
:1017F000F0B40E4B1B680C46C3F30223C3F107057C
:10180000042D00D90425191D072901D2002300E069
:10181000DB1E012606FA05F1491E214099409E4033
:10182000761E16403143F0BC01F04BBF0CED00E0DA
:10183000064900F0070208684FF6FF03184040EA27
:101840000220034A10430860704700000CED00E0DE
:101850000000FA052DE9F0470E46050065D0DFF8D7
:101860001481D8F80000F7B200F00700B04207D2A8
:1018700088F80070D8F8000000F00700B04254D19A
:1018800028683D4C810712D5400703D5206840F4F5
:10189000E05020602878000703D5206840F46040BD
:1018A00020602068A96820F0F000084320602878B4
:1018B000C0072DD0304968680839012812D00228A5
:1018C00013D0032811D00968890700292DDA21686F
:1018D00021F0030101432160FFF7D6F9814641F26F
:1018E000883A0EE009688903EFE709688901ECE7A7
:1018F000FFF7CAF9A0EB0901514502D90320BDE861
:10190000F0872068696800F00C00B0EB810FEFD120
:10191000D8F80010404601F00701B14207D907701E
:10192000006800F00700B04201D00120E7E7287806
:10193000400705D52068E96820F4E050084320609E
:101940002878000706D52068296920F4604040EA1D
:10195000C100206000F038F82168084AC1F3031183
:10196000515CC8400649086006480068FFF7EAFE77
:101970000020C4E7003C024008380240DA3B00087F
:10198000140000200C000020044805490068096884
:10199000044AC1F38221515CC84070471400002002
:1019A00008380240EA3B0008044805490068096815
:1019B000044AC1F34231515CC84070471400002012
:1019C00008380240EA3B0008154810B5006810F0DE
:1019D0000C02144813D01449042A0FD0082A0ED13F
:1019E0000F4C241F2268236802F03F025B0207D5D8
:1019F0002068C0F38810A0FB010106E0084610BD76
:101A00002168C1F38811A1FB00010023FEF72CFC23
:101A10002168C1F30141491C4900B0FBF1F010BD40
:101A2000083802400024F40040787D012DE9F84F89
:101A300004006ED02078DFF84C93C007A9F10405AC
:101A40004AD009F104000168C1F38101012908D0DD
:101A50000068C0F3810002280AD1D9F800004002D2
:101A600006D52868800337D560680028E1D033E0C8
:101A70006068B0F5803F10D0B0F5A02F286810D076
:101A800020F480302860286820F480202860606876
:101A9000A8B1FFF7F9F806460DE0286840F4803059
:101AA000F4E740F480202860F7E700BFFFF7ECF888
:101AB000801B642873D828688003F7D50CE0FFF7F3
:101AC000E3F8064605E000BFFFF7DEF8801B642858
:101AD000F0D828688003F7D42078DFF8AC8280073C
:101AE0004FF0000A3ED5A748001D016811F00C0F09
:101AF00008D00068C0F3810002280BD1D9F800009B
:101B0000400207D42868800716D5E068012800D174
:101B100012E033E1E068B8B10120C8F80000FFF737
:101B2000B3F8064605E000BFFFF7AEF8801B0228B9
:101B3000C0D828688007F7D52868216920F0F80008
:101B400040EAC10028600DE0C8F800A0FFF79CF84B
:101B5000064604E0FFF798F8801B02281FD8286883
:101B60008007F7D42078000722D5864F874861691F
:101B7000703771B101210160FFF786F8064604E075
:101B8000FFF782F8801B022809D838688007F7D54C
:101B90000EE0C0F800A0FFF777F8064605E082E007
:101BA000FFF772F8801B02287DD838688007F7D4C9
:101BB0002078400768D5DFF8CCB100270BF13C0B4B
:101BC000DBF80000C0000BD4DBF8001041F08051BE
:101BD000CBF80010DBF80000012700F080500090E7
:101BE0006B4E3068C00510D4306840F480703060AF
:101BF000FFF74AF8009005E0FFF746F80099401A11
:101C0000022850D83068C005F6D55E4EA0686C3604
:101C100001280FD00528306810D020F00100306076
:101C2000306820F004003060A068B8B1FFF72CF8ED
:101C300000900FE0306840F00100F4E740F004004D
:101C40003060F7E7FFF720F80099411A41F2883039
:101C5000814266D830688007F4D50EE0FFF714F8AB
:101C6000009007E0FFF710F80099411A41F2883020
:101C7000814256D830688007F4D42FB1DBF80010C9
:101C800021F08051CBF80010A069C8B33D49091D6F
:101C90000968C1F3810102294AD00228504607D0C1
:101CA000C8F8600000E03CE0FEF7EEFF04463BE0D1
:101CB0004746C8F86000FEF7E7FF064605E000BFAC
:101CC000FEF7E2FF801B02282BD828688001F7D49A
:101CD000D4E907010843A16A2E4A490802EB0141F1
:101CE000626A41EA8211084394F82C1040EA0161CB
:101CF000C9F8001001203866FEF7C6FF044606E06A
:101D00003EE000BFFEF7C0FF001B022809D828688C
:101D10008001F7D534E000BFFEF7B6FF001B0228B4
:101D200002D90320BDE8F88F28688001F4D427E0A9
:101D30000128F7D0D9F80000E26900F4800191424F
:101D40001CD1226A00F03F01914217D147F6C071C1
:101D5000626A0140B1EB821F10D1A26A4FF0FF33DB
:101D600000F4403103EB5202B1EB024F06D194F87C
:101D70002C1000F07060B0EB016F01D00120D1E7B2
:101D80000020CFE70438024000004742800E47425F
:101D9000007000400000FFFF10B5401EB0F1807FD2
:101DA00001D3012010BD4FF0E02460610F216017C6
:101DB00001F087FC0020A06107202061002010BDF9
:101DC00038B5044690F83E00202822D181B17AB17E
:101DD00094F83C0001281CD0012084F83C002063CA
:101DE000204601F025FC002803D1216B012901D0F8
:101DF000012038BD21680A684968009121680C31CA
:101E000051E8002F42F0100241E80023002BF5D1E9
:101E100038BD022038BD000010B50C460D494FF406
:101E20008472A1F5D670FFF7CBFF0B4948700B48C1
:101E30000068016821F008010160094A214605484F
:101E400001F064FD014605480222BDE81040443817
:101E500000F036BA1802002000000020B000002078
:101E60002004002010B5040014D0242084F83D0084
:101E70002068C16821F40051C160204600F08CF94F
:101E80000020206484F83D0084F83E0044F8300FC0
:101E9000207310BD012010BD10B50A48FFF7E2FF06
:101EA000084800F047F94FF4847207490548FFF7E6
:101EB00087FF044844300068016821F00801016090
:101EC00010BD00006C00002018020020F8B5016869
:101ED00004460868CA684B6910F00F0F4FF0000500
:101EE00059D003F0010602F49077374365D0C1075B
:101EF00005D0D10503D5216C41F0010121644107D2
:101F000005D5D90703D0216C41F002012164810776
:101F100005D5D90703D0216C41F0040121640107E4
:101F200007D502F02001314303D0216C41F00801B4
:101F30002164216C00293AD0800604D5900602D590
:101F4000204601F08FFA20684069216CC0F38010B0
:101F5000090700D460B3204601F04FFA20684069B9
:101F6000400621D52068143050E8001F21F04001C0
:101F700040E80012002AF5D1A06BA8B16C490165B8
:101F8000A06BFEF703FB002811D0A06B016D01B020
:101F9000BDE8F040084783060FD593060DD52046CF
:101FA000BDE8F84001F05EBA2046FFF775FFF8BDC6
:101FB0002046FFF771FF2564F8BD266B2023012E14
:101FC00079D1C60677D5D60675D5086848680090D9
:101FD0004869400640D5A16B086840680004000CC1
:101FE000EAD0A28D8242E7D9E085C869B0F5807F4A
:101FF0002DD020680C3050E8001F21F4807140E89B
:102000000012002AF5D12068143050E8001F21F09A
:10201000010140E80012002AF5D12068143050E890
:10202000001F21F0400140E80012002AF5D184F899
:102030003E30256320680C3050E8001F21F010016D
:1020400040E80012002AF5D1A06BFEF756FAA08DE9
:10205000E18D401A81B229E0A08DE18D401A81B254
:10206000E08D0028A8D00029A6D020680C3050E8C8
:10207000002F22F4907240E80026002EF5D120684F
:10208000143050E8002F22F0010240E80026002E14
:10209000F5D184F83E30256320680C3050E8002FDD
:1020A00022F0100240E80023002BF5D12046FFF774
:1020B000B3FEF8BDFFE705062BD5150629D594F824
:1020C0003D002128F5D1A068B0F5805F01D12069DD
:1020D000B0B1206A411C2162216800784860E08C20
:1020E000401E0004000CE084E3D12068C16821F0A8
:1020F0008001C1602068C16841F04001C160D8E73B
:10210000206A0088C0F308004860206A801C2062B2
:10211000E5E74006CDD55006CBD5CA68204622F06B
:102120004002CA6084F83D3000F010F9C1E70000B9
:10213000B932000870B5040004D094F83D000025C1
:1021400010B106E0012070BD84F83C50204600F03C
:1021500045F8242084F83D002068C16821F400512E
:10216000C160204601F0DEF92068016921F4904148
:1021700001612068416921F02A0141612068C1683C
:1021800041F40051C1602564202084F83D0084F8AA
:102190003E00002070BD000010B5044600680C49E8
:1021A000884213D10B48016821F40021016003210A
:1021B0000948FEF7B7FBA06BFEF7FAF9606BFEF774
:1021C000F7F9BDE810403420FFF7F4BA10BD000065
:1021D000004C004040380240000002402DE9F04130
:1021E00086B0064614216846FEF7B5F82D493068DA
:1021F000884253D12C480024016841F40021016039
:10220000006800F40020059027481038016841F06C
:10221000010101600068022100F001000590032027
:102220008DE8130003900820049069461F48FEF7CC
:102230002DFC204D1E484FF4806847052860C5E9F5
:102240000174C5E903486C61AC61EC612C622846FD
:102250006C62FEF7B3FA08B1FEF74DF9B563AE63F1
:102260001348154D3030E5E802074020A5E811017C
:10227000114845F81449AC61EC612C626C62FEF7C0
:102280009DFA08B1FEF737F9756300221146342034
:10229000AE63FFF7ADFA3420FFF79DFA06B0BDE854
:1022A000F0810000004C0040403802400000024035
:1022B00040600240B0000020F005002070477047E9
:1022C00070B5044690F83D00202836D191B38AB30A
:1022D00094F83C00012830D0012084F83C002162B1
:1022E000A284E28400252564212084F83D00636BEC
:1022F0001348D863636B13481864636B1248D8643F
:10230000606B134605652668606B321DFEF7C0FAE8
:1023100021686FF04000086084F83C502068143059
:1023200050E8001F41F0800140E80012002AF5D17A
:10233000002070BDFFE70120FBE70220F9E7000065
:10234000AF330008F1330008C93200087047704706
:10235000FEE700000148FEF79FBC000018000020C7
:102360000148FEF7F6BC00001800002038B5806B6D
:10237000002190F83D202B4B46F2A8141B68B3FBBC
:10238000F4F3C3EBC30303EB830300933BB15B1E86
:10239000009303681B689B0505D5009BF6E7036C5B
:1023A00043F020030364436B03B1D963836B03B130
:1023B000D96303681C6824F480641C604185436B06
:1023C00003B11965836B03B1196503681C6824F0B8
:1023D00001041C6090F83D402023602C0BD0282481
:1023E00034EA02020FD080F83D3080F83E1000BF82
:1023F000FEF7C7FD38BD80F83D3080F83E1001641F
:10240000FEF748FC38BD0268136843F0010313600F
:102410000268136843F480631360016380F83D40F1
:10242000E6E700001400002070B5846B0025616BA6
:1024300001B1CD63A16B01B1CD63FEF7EAF80228CB
:1024400011D02068016821F4806101606585202039
:1024500084F83D0084F83E50206C40F01000206469
:102460002046FEF78EFD70BD2DE9F041846B94F897
:102470003D2094F83E50E16A2068436823F440739D
:102480004360636B002003B1D863A36B03B1D863CF
:10249000212333EA02074FF022060CD036EA020766
:1024A00001D1202D07D094F83E20002A21D0628D42
:1024B000012A20D024E021684D6825F400654D6094
:1024C00060852820292A02D02A2A07D00CE023631D
:1024D00084F83D002046FFF712F905E0266384F8F2
:1024E0003D002046FFF70AF92068416841F4407139
:1024F0004160BDE8F0812268136823F480631360B3
:102500002268536823F44073536011F5803F06D06E
:10251000082904D0B1F12A4F01D0202904D1216823
:102520000A6842F400720A6021684A6822F4805204
:102530004A6021684A6822F400624A606085216C22
:1025400019B12046FEF71DFDD3E7202184F83D1088
:1025500094F83E1084F83E00402905D012202063F4
:102560002046FEF78AFEC4E720632046FEF788FE79
:10257000BFE7000070B5044690F83D0094F83E10A7
:10258000102901D0402906D1222804D121680A68E7
:1025900022F400620A60282131EA00024FF00005AF
:1025A0004FF0200626D021684968090505D4602827
:1025B00003D084F83D6084F83E502563206841686C
:1025C000090537D5416821F400614160606B90F8DE
:1025D00035203C49012A11D00165606BFDF7D6FF1B
:1025E00038B32068016821F00101016084F83D6082
:1025F000606B1CE0256384F83D10DFE7A06B01658C
:10260000A06BFDF7C3FFA0B120684169C94349062B
:1026100005D40069616A0870606A401C60622068C5
:10262000016821F00101016084F83D60A06B016D3B
:10263000884710E094F83D10602910D04169C943E3
:10264000490605D40069616A0870606A401C6062CE
:102650002046FEF796FC206CC1071CD115E084F8DB
:102660003D6025644169C943490605D40069616A32
:102670000870606A401C60622068016821F00101F6
:1026800001602046FEF706FBE5E7810703D441071A
:1026900001D4000704D52068416821F4E06141605D
:1026A00094F83D00216C49070BD5282809D106482C
:1026B000E062256384F83D6084F83E502046FEF7D2
:1026C000DBFD70BD6D2300080000FFFF01684A6953
:1026D000D24352050FD46FF480624A61002140F862
:1026E000301F202242738173026942F004020261AA
:1026F0000173012070470020704710B5C26A438DF6
:102700000168042B06D0438D032B08D0438D022B88
:102710001DD012E04A6822F480624A600CE04B68E7
:1027200023F480634B60042A06D0022A04D0016897
:102730000A6822F480620A6001680969426A1170BD
:10274000416A491C4162418D491E418510BD012AE3
:1027500030D0102A2ED0042A30D0022A2ED00A6877
:1027600042F400720A6001680969426A1170416AA4
:10277000491C4162428D521E4285026812690A70EC
:10278000416A491C4162418D491E418501684A6880
:1027900022F440724A60202180F83D1090F83E20DB
:1027A0000021402A80F83E100CD012210163FEF770
:1027B00064FD10BD0A6822F48062D3E70A6842F41F
:1027C0008062CFE70163FEF75BFD10BD38B590F87E
:1027D0003D10222914D1418D032912D901680969BC
:1027E000426A1170416A491C4162418D491E41850E
:1027F000418D032904D10068416821F48061416062
:1028000038BDC26A022AFBD0012901D00029F7D1C4
:10281000274946F2A81300220968B1FBF3F101EB46
:102820008101009101682023009C641E009422D045
:102830000C68A405F8D40C6824F480640C6001686A
:102840004C6824F4E0644C6001680969446A2170B2
:10285000416A491C4162418D491E418580F83D30E5
:1028600090F83E1080F83E2040291DD012210163CF
:10287000FEF703FD38BD046C44F0200404644C688A
:1028800024F4E0644C6001680969446A2170416A7B
:10289000491C4162418D491E418580F83D3080F8D8
:1028A0003E20FEF76EFB38BD0263FEF7E9FC38BD43
:1028B0001400002010B5C26A90F83D1021290BD1F8
:1028C000418D51B1416A026809781161416A491C20
:1028D0004162418D491E418510BD20230021082AF7
:1028E00013D0202A11D012F5803F0ED00268546810
:1028F00024F4E06454601122026380F83E1080F8F2
:102900003D3000BFFEF7BAFC10BD0268546824F4E5
:10291000E06454600268146844F400741460016355
:1029200080F83D3090F83E2080F83E10402AE9D1F2
:10293000FEF7ACFC10BD000010B590F83D1090F80B
:102940003E30C26A048DB4B1212903D0402B11D18D
:1029500022290FD1418DE1B390F83E10402942D099
:10296000416A026809781161416A491C4162418DDE
:10297000491E418510BD2129E8D120230021082AC4
:1029800013D0202A11D012F5803F0ED0026854686F
:1029900024F4E06454601122026380F83E1080F851
:1029A0003D3000BFFEF76AFC10BD0268546824F495
:1029B000E06454600268146844F4007414600163B5
:1029C00080F83D3090F83E2080F83E10402AE9D152
:1029D00000E002E0FEF75AFC10BD0068416821F4F7
:1029E0008061416010BDBDE8104000F0D3B8000028
:1029F00078B590F83E50C26A036B90F83D600024B1
:102A00000168222E7AD1066D0EB9402D76D0056D63
:102A10001DB90569B5F5404F09D0458D05B3468D03
:102A2000384D012E0ED0438D022B3AD05DE04A691D
:102A30008A6900920A6842F480720A60016D491C3A
:102A4000016578BDAA4213D10A6822F480620A6047
:102A500001684A68120503D50A6822F4806216E00C
:102A60004A698A6900920A6842F400720A6039E091
:102A7000082A10D0202A0ED0122B0AD0042A03D004
:102A8000022A01D0102AE7D10A6842F480620A6063
:102A900024E0012AE0D00A6822F480620A6001681A
:102AA000DEE7042A21D0022A1FD0102A1DD00B688D
:102AB00023F480630B6001680B6843F400630B60D0
:102AC00001684B681B0509D5AA4212D0012A10D013
:102AD000082A0ED0102A0CD0202A0AD001684A6990
:102AE00089690091046578BD08E00B6843F4806350
:102AF000E5E74A6842F480524A60EFE7486988692E
:102B00000090F0E70000FFFF90F83E10402910D041
:102B10000169B1F5804F19D0016DA9B3016D01298B
:102B200010D1416C5FF0F10201F4407142EAD11121
:102B300006E0016D0029416C05D0C9B241F00101E8
:102B400000680161704701F0FE01F9E790F83D105F
:102B50002129416C09D0C9B241F00101026811611B
:102B6000416B29B1C96B49B902E001F0FE01F5E7FB
:102B7000816B0029E6D0C96B0029E3D00068416869
:102B800041F4006141607047FFE7416CF02201F4BD
:102B90004071CBE710B590F83D10026D22B3026D85
:102BA000012A2FD0026D022A1DD122292FD0428D59
:102BB0000AB1212933D0428D002A14D1212912D102
:102BC00001684A6822F4E0624A6001680A6842F4D7
:102BD00000720A6000210163202280F83D2080F805
:102BE0003E10FEF753FB10BDC16C0129816C02D071
:102BF000C1F3072108E00268C9B21161016D891CA7
:102C0000016510BD816CC9B20268116104E0016800
:102C10000A6842F480720A60016D491CF0E7416A5B
:102C2000026809781161416A491C4162418D491E5F
:102C3000418510BD2DE9F84F0446006889460B9D7B
:102C400001689846174641F4806101602068016878
:102C500041F48071016000954FF0011B002259463C
:102C600020460A9B00F0CCF94FF4007A40B120686E
:102C70000068C00501D5C4F840A00320BDE8F88F66
:102C8000216809F0FE0008612B46284920460A9A6F
:102C900000F0EAF9F0BB20684169806900902A469B
:102CA00020460A9900F02BFA40B1206C04283AD152
:102CB0002068016841F40071016034E0FEB2B8F1AF
:102CC000010F09D02168380A08612A4620460A996E
:102CD00000F015FA0028E8D1206806612A4620464F
:102CE0000A9900F00CFA0028DFD12068016841F44D
:102CF0008071016000950022594620460A9B00F031
:102D00007FF90028B3D1216809F0FF0040F00100ED
:102D1000086100E007E02B46044920460A9A00F0CB
:102D2000A3F90028AAD00120A8E7000002000100B2
:102D30002DE9F843044600680D46DDE9089701686F
:102D40009846164641F4807101604B4600224FF0D0
:102D500001112046009700F053F948B1206800683F
:102D6000C00502D54FF4007020640320BDE8F8834D
:102D7000216805F0FE0008613B464A461549204699
:102D800000F072F988B920684169806900903A467C
:102D90004946204600F0B3F948B1206C042804D11C
:102DA0002068016841F4007101600120DEE7F5B29E
:102DB000B8F1010F09D02168300A08613A46494646
:102DC000204600F09CF90028E7D12068056100202A
:102DD000CCE700000200010038B50C4690F83D2019
:102DE00000212825954302680B4605D05169916959
:102DF000009180F83C3038BD556825F480655560F9
:102E0000E243540700D50121120601D5828900E072
:102E1000028B80F83C3092B2FDF73DFF38BD0000D8
:102E20002DE9F04190F83D40C26A002320261C4F56
:102E300001686FF48065082A01D0202A01D1282C6E
:102E400004D0212C16D04D61BDE8F081C7624A68DC
:102E500022F4E0624A6001684D6101680A6822F468
:102E600080620A60036380F83D6080F83E30FEF7C0
:102E700003FAE9E7C7622122026380F83D6080F827
:102E80003E304A6822F4E0624A6001684D610168A0
:102E90000A6822F480620A60FEF731FCD4E7000081
:102EA0000000FFFFF8B590F83D60044600684168F7
:102EB00021F4E061416020680025416900910168CA
:102EC00041F0010101602068016821F48061016026
:102ED00020684168090520D5474F222E48D02A2E68
:102EE00046D0616B096849686185618D19B1216CB3
:102EF00041F004012164416821F400614160606B8C
:102F0000FDF789FB012808D0606B0765606BFDF752
:102F10003DFB10B1606B016D8847608D08B3206880
:102F20004169C943490708D40069616A0870606A49
:102F3000401C6062608D401E608520684169C94305
:102F4000490608D40069616A0870606A401C6062C2
:102F5000608D401E6085608D18B1206C40F00400CB
:102F60002064206C00B32046BDE8F840FFF702BBA8
:102F7000A16B096849686185618D19B1216C41F0C7
:102F800004012164416821F400614160A06BFDF7F8
:102F900042FB0128C1D0A06B0765A06BFDF7F6FAD4
:102FA0000028BAD0A06BB6E72A2E06D125632820C8
:102FB00084F83D002046FEF7A1FB94F83D10202048
:102FC00028290DD0216B222901D0222E07D125637B
:102FD00084F83D0084F83E502046FEF78FFBF8BD94
:102FE0000649E162256384F83D0084F83E5020469E
:102FF000FEF742F9F8BD00006D2300080000FFFF56
:103000002DE9F0471E4690460D460446C1F307479A
:10301000DDF8209008E0701C06D0FDF735FEA0EB2F
:103020000900B0420FD876B12068012F18D080690E
:1030300025EA00000004000C14D000214145EAD02C
:103040000020BDE8F087002044F8300F2021617394
:10305000A073216941F02001216120730120F0E774
:103060004069E5E70121E9E72DE9F0479A469146F5
:103070000E46044600254FF02008C1F3074725E01F
:1030800020684069C043400514D42068016841F4B9
:103090000071016021686FF480604861256384F8E5
:1030A0003D8084F83E50206C40F00400206484F899
:1030B0003C501FE0B9F1FF3F08D0FDF7E5FDA0EB64
:1030C0000A0149450CD8B9F1000F09D02068012F39
:1030D00013D0806926EA00000004000C0BD0CFE773
:1030E00044F8305F84F80D80A573206940F020001B
:1030F000206125730120BDE8F0874069EAE770B5DB
:1031000016460D4604460DE02046FFF7DFFA08B1EB
:10311000012070BD681C05D0FDF7B6FD801BA842DC
:1031200007D835B120684069C0430006ECD40020C0
:1031300070BD002044F8300F20216173A073216915
:1031400041F0200121612073E2E70000154808B535
:10315000016841F4001101600068002200F40010D1
:10316000009011460B20FEF743FB0B20FEF733FBCC
:10317000002211460D20FEF73BFB0D20FEF72BFB36
:10318000002211460F20FEF733FB0F20FEF723FB32
:10319000002211461120FEF72BFBBDE8084011204C
:1031A000FEF719BB3038024030B587B014216846AD
:1031B000FDF7D1F815480024016841F08001016055
:1031C000016801F080010591016841F00101016091
:1031D000016801F001010591016841F002010160FF
:1031E00000680B4D00F002000590002220212846C7
:1031F000FDF744FD202000900120CDE9010469463F
:1032000028460394FDF742FC07B030BD3038024039
:1032100000040240FEE7FEE770477047FEF770BA11
:1032200010B592B030216846FDF795F814210CA82E
:10323000FDF791F817480024016841F080510160C2
:10324000006800F0805011901348016841F48041FB
:1032500001600068069400F4804011900220009004
:1032600001200390102004906846FEF7DFFB08B1B0
:1032700072B6FEE70F20CDE90C040E940F940021E6
:103280000CA81094FEF7E6FA002801D072B6FEE70B
:1032900012B010BD40380240007000400248016882
:1032A00041F470010160704788ED00E00148FEF7CD
:1032B0000DBE00006C00002010B5806B0021C185A0
:1032C000C184FEF7E9FD10BD70B5846B20684069CC
:1032D00094F83D10C0F3C0100025212904D118B185
:1032E000E584204600F0B0F82068406994F83E106C
:1032F000C0F38010222904D118B1E585204600F0E2
:103300007CF8206C40F0100020642046FEF7C4FDDD
:1033100070BD10B50146806B09680968C9052FD4D6
:103320000021C18501680C3151E8002F22F4807220
:1033300041E80023002BF5D10168143151E8002F3A
:1033400022F0010241E80023002BF5D1016814317D
:1033500051E8002F22F0400241E80023002BF5D174
:10336000202180F83E10016B012909D101680C3140
:1033700051E8002F22F0100241E80023002BF5D184
:10338000016B012902D0FEF799FF10BD818DFEF778
:1033900043FD10BD10B5806B016B012902D0FEF713
:1033A0008EFF10BD818D4908FEF736FD10BD10B5AA
:1033B0000146806B09680968C90516D40021C184DB
:1033C0000168143151E8002F22F0800241E8002307
:1033D000002BF5D101680C3151E8002F42F040027A
:1033E00041E80023002BF5D110BDFEF7AFFF10BD63
:1033F00010B5806BFEF7ABFF10BD01680C3151E8D2
:10340000002F22F4907241E80023002BF5D10168CF
:10341000143151E8002F22F0010241E80023002B73
:10342000F5D1016B012909D101680C3151E8002F58
:1034300022F0100241E80023002BF5D1202180F872
:103440003E1000210163704701680C3151E8002FE4
:1034500022F0C00241E80023002BF5D1202180F8A2
:103460003D10704708B590F83E10222901D0022087
:1034700008BD82684FF480539A4201D1016921B19D
:10348000816A9A421BD04AB10AE00268816A526896
:10349000C2F308020A80816A891C08E0026972B1DD
:1034A0000268526802F07F020A70816A491C8162D8
:1034B000C18D491E0904090CC18503D019E00268B9
:1034C0005268F1E70168CA6822F02002CA60016808
:1034D000CA6822F48072CA6001684A6922F0010257
:1034E0004A61202180F83E10016B012903D0FEF7CC
:1034F000E5FE002008BD0021016301680C3151E8A0
:10350000002F22F0100241E80023002BF5D10168C2
:103510000A68D20602D50A6849680091818DFEF7D3
:103520007BFCE6E770B5044600680169E26821F4B7
:103530004051114301612169A068E2690843616952
:10354000114308432168CA6849F20C639A43024355
:10355000CA6020684169A26921F440711143416148
:1035600031492068884202D03049884202D1FEF7B2
:103570001BFA01E0FEF708FAE2690023192164252D
:103580003226B2F5004F626828D0A0FB0101930FEC
:103590009200FCF769FE0146B0FBF5F06FF01802EF
:1035A000504301EB800006EB0010B0FBF5F000F09B
:1035B000F002B1FBF5F002EB0012B1FBF5F06FF099
:1035C0001803584301EB800006EB0010B0FBF5F048
:1035D00000F00F0021681044886070BDA0FB01015D
:1035E00092185B41FCF740FE0146B0FBF5F002018A
:1035F000B1FBF5F06FF01803584301EB800006EBC8
:10360000C000B0FBF5F000F0F80002EB4002B1FBA7
:10361000F5F0584301EB800006EBC000B0FBF5F07D
:1036200000F00700D6E70000001001400014014040
:1036300038B5816282850025134604460564222040
:1036400084F83E00A26B1B48D063A26B1A4810643A
:10365000A26B1A48D064A06B0A4605652168A06B6E
:10366000091DFDF715F9206801684068009084F88D
:103670003C5020680C3050E8001F41F4807140E855
:103680000012002AF5D12068143050E8001F41F0E4
:10369000010140E80012002AF5D12068143050E8FA
:1036A000001F41F0400140E80012002AF5D100203F
:1036B00038BD00001333000895330008C9320008F4
:1036C000FEE70907090E002804DB00F1E02080F87E
:1036D0000014704700F00F0000F1E02080F8141D86
:1036E00070470021425C392A01D9373A00E0303A6C
:1036F0004254491C0229F5DB4178007801EB0010A7
:10370000C0B270472DE9FC47DFF89880044689462F
:1037100098F800006179002640EA410088F801002D
:103720004546324620212048FDF7A8FA64230222AC
:1037300029784846FDF7EAFC10B10020BDE8FC8777
:103740001A4F00255FF0000000EBC501214422184C
:103750008979401C82F806110828F5DB082104F558
:103760008370CDE900012279012398F801104846C1
:10377000FDF77CFE012038700520FDF7C1F8387890
:1037800003E020B1761C642E09D0642EF9DD207987
:103790006D1C08302071202DD4DB0220CEE70020E4
:1037A0003870CAE702000020000402400000002038
:1037B000FDF7AEFFFFF734FDFFF7F6FCFFF7C6FCA1
:1037C00040483F49002401604FF4E131C0E9011451
:1037D0000C21C460C0E904418461C461FEF7AAFC05
:1037E00008B172B6FEE737483749543801603749A7
:1037F000C0E901144FF48041C0E903414461846190
:10380000C4610462FDF7BEFB08B172B6FEE74FF477
:1038100084722F492B48FEF7D3FA2A4844300068B7
:10382000016821F0080101602A4CA4F5447500BF2D
:1038300094F80E010028FBD094F80F0140B3012842
:1038400026D00228244A2348A2F542712CD000F049
:1038500025F90146204A1F4800F0F4F84620287058
:10386000312068704420A870002021182A18897916
:10387000401CD170FF28F8DD2A2085F8030120883C
:103880001049001D82B2A4310E48FEF719FDCFE7A2
:103890000C491048543900F063F901460E4A0D48AE
:1038A00000F0D0F8022209E000F0F8F801460A4AD8
:1038B000084800F0C7F82088001D82B2A11DE3E788
:1038C000004C00406C00002000540040A086010025
:1038D0001802002020040020200300200178522933
:1038E00008D057290FD1407830280CD0312800D18A
:1038F000012070474078302803D03128F9D10320C7
:103900007047022070470020704700002DE9FC4FEF
:103910000E46002115468146494B0A460846302787
:103920001F54401CC0B20228FAD300244FF00108F3
:103930004FF0350B4FF0460A75E0462802D1587813
:10394000352878D031B1012933D0022937D0032965
:1039500068D155E0022C06D00DF1040C19F80400D2
:103960000CF804005EE099F80200412832D101A869
:10397000FFF7B4FF85F80F0101280BD0032812D000
:10398000092E03D083F800A083F801B0C5F80080A9
:10399000012147E0B6F5847F07D200BF83F800A07D
:1039A00083F801B001E0082EF8D14FF48070286050
:1039B000EEE719F8040030386871022132E0062C75
:1039C00004D019F804000DF8020022E099F806006E
:1039D000442804D083F800A083F801B022E095F8D1
:1039E0000F01012801D0032803D18DF800708DF854
:1039F00001706846FFF775FE00222871032111E06F
:103A0000701E844219F8040006DA05EB020C8CF8EB
:103A10000600521CD2B205E02A2803D183F800A088
:103A200036205870641C1878B44286DB462802D0D1
:103A30005878362801D185F80E810148BDE8FC8F01
:103A40000400002010B5462399B1012914D00229A1
:103A500015D003290CD190F80F11022913D0032996
:103A600006D100214418535C491CA371FF29F9DDDC
:103A700010BD8371332104E08371322101E0837131
:103A80003421C17110BD83713121C1714421017292
:103A9000117841722A21817210BD00002DE9FC4786
:103AA0002D4D89469046044600276423022229783A
:103AB0004846FDF72BFBE8BB94F80F0100260228CF
:103AC00002D003283CD11CE084F80E61287861798B
:103AD00040EA41006870002020212218401C9171AA
:103AE000FF28FADD2088012380B2CDE90080227909
:103AF00069784846FDF7D0FBE0B90520FCF700FFE8
:103B000021E084F80E6128786179012340EA4100C0
:103B1000C1B26970208880B2CDE900802279484620
:103B2000FDF7BAFB0D4D012028706420FCF7E8FE7C
:103B3000287800E00CE030B17F1C642F07D0F8DD5E
:103B400084F80E6104E04FF00300BDE8FC872E709E
:103B50004FF00100F9E70000020000200000002003
:103B60007CB5184D0E46044664230222297830465F
:103B7000FDF7CCFAD8B994F80F11002021B1012932
:103B800084F80E0113D116E084F80E0128786179CB
:103B9000A21D40EA4100C1B269702088012380B2B1
:103BA000CDE9002022793046FDF760FC08B1002005
:103BB0007CBD02207CBD31462046BDE87C40FFF73D
:103BC000A1BD0000020000204FF04070E1EE100A9D
:103BD00070470006101600061016000000000000D6
:103BE00000000102030406070809000000000102AA
:103BF00003040000143C000800000020180000002E
:103C0000C40100082C3C000818000020980C00009B
:103C1000E00100080000A00000000000010000001A
:0C3C200010000000000000000024F40070
:040000050800018965
:00000001FF
