:020000040800F2
:1000000028080020290200081B1D0008EB1B00081F
:10001000191D0008D5050008C521000800000000D2
:100020000000000000000000000000001F1D00088C
:10003000A1060008000000001D1D0008211D000889
:10004000430200084302000843020008430200087C
:10005000430200084302000843020008430200086C
:10006000430200084302000843020008430200085C
:1000700043020008D905000843020008E50500080E
:10008000430200084302000843020008430200083C
:10009000430200084302000843020008430200082C
:1000A000430200084302000843020008430200081C
:1000B000430200084302000843020008430200080C
:1000C00043020008430200084302000843020008FC
:1000D00043020008430200084302000843020008EC
:1000E00043020008430200084302000843020008DC
:1000F00043020008430200084302000843020008CC
:1001000043020008430200084302000843020008BB
:10011000B11D000843020008430200084302000822
:10012000F1050008430200084302000843020008EA
:10013000430200084302000843020008430200088B
:10014000430200084302000843020008430200087B
:10015000430200084302000843020008430200086B
:10016000430200084302000843020008430200085B
:100170004302000843020008430200080000000098
:10018000430200084302000800F002F800F03CF8C7
:100190000AA090E8000C82448344AAF10107DA45E2
:1001A00001D100F031F8AFF2090EBAE80F0013F0F8
:1001B000010F18BFFB1A43F0010318473C21000050
:1001C0005C210000103A24BF78C878C1FAD85207E1
:1001D00024BF30C830C144BF04680C6070470000C1
:1001E0000023002400250026103A28BF78C1FBD840
:1001F000520728BF30C148BF0B6070471FB502F0DF
:1002000065F81FBD10B510BD00F0CFF81146FFF71F
:10021000F5FF01F0E9FF00F0EDF803B4FFF7F2FF9E
:1002200003BC00F0F5F80000094880470948004782
:10023000FEE7FEE7FEE7FEE7FEE7FEE7FEE7FEE796
:10024000FEE7FEE704480549054A064B70470000F3
:10025000A11D0008890100082802002028080020AC
:10026000280400202804002053EA020C00F06980D2
:100270002DE9F04B4FF00006002B1FBFB3FA83F5BA
:1002800003FA05F424FA05F65E4012BF1643B2FAEB
:1002900082F502FA05F4C5F120051EBF22FA05FC1D
:1002A00044EA0C04203556EA044C4FEA144418BFC3
:1002B000641C4FF000084FF00009904271EB030CF2
:1002C00039D3002919BFB1FA81F701FA07F6B0FA5C
:1002D00080F700FA07F6C7F120071EBF20FA07FCD7
:1002E00046EA0C062037B6FBF4FCA7EB0507103FE7
:1002F00007F01F0BCBF120060CFA0BFB2CFA06F6CD
:1003000044BFB3460026202FA4BF5E464FF0000B2B
:100310005BEA060C08BF4FF0010B19EB0B09ABFBB6
:10032000027C48EB0608C01B06FB02CC0BFB03CC8F
:1003300071EB0C01C1E70B46024641464846BDE859
:10034000F08B13B54FF000004FF00001AFF30080C9
:10035000BDE81C4070474FF0000200B513469446BC
:100360009646203922BFA0E80C50A0E80C50B1F10D
:100370002001BFF4F7AF090728BFA0E80C5048BF21
:100380000CC05DF804EB890028BF40F8042B08BFBF
:10039000704748BF20F8022B11F0804F18BF00F8BB
:1003A000012B7047704770477047754600F02CF876
:1003B000AE4605006946534620F00700854618B052
:1003C00020B5FFF73FFFBDE820404FF000064FF09B
:1003D00000074FF000084FF0000B21F00701AC467A
:1003E000ACE8C009ACE8C009ACE8C009ACE8C00999
:1003F0008D46704710B50446AFF300802046BDE837
:100400001040FFF70ABF000000487047C8010020F5
:1004100001491820ABBEFEE726000200704710B568
:100420000146806B026C12F0500F05D0026CD206B0
:1004300026D500F0E1F910BD016C41F400710164B2
:1004400001688A6812F0405F17D1027EAAB9CA6AB1
:1004500012F4700F02D08A6852050ED44A6822F056
:1004600020024A60016C21F480710164016CC904AE
:1004700003D4016C41F00101016400F0BBF910BD2F
:10048000806BC26CBDE810400846104710B5806B09
:1004900040210164416C41F00401416400F0ACF979
:1004A00010BD10B5806B00F0A6F910BD464910B51F
:1004B0004A6822F440324A604A6843681A434A60F4
:1004C00001684A6822F480724A6001684A680369D8
:1004D00042EA03224A6001684A6822F040724A6098
:1004E00001684A6883681A434A6001688A6822F48E
:1004F00000628A6001688A68C3681A438A60816AF8
:100500006FF07062D14201688A6822F070628A607E
:1005100001688A680CD0836A1A438A6001688A6815
:1005200022F040528A6001688A68C36A1A4301E077
:1005300022F040528A6001688A6822F002028A60D2
:1005400001688A68037E42EA43028A6090F82010BC
:10055000002901684A680FD042F400624A600168CD
:100560004A6822F460424A6001684A68174C436A4C
:1005700004EB43331A4301E022F400624A6001684D
:10058000CA6A22F47002CA620168CA6A838B104C7C
:1005900004EB03531A43CA6201688A6822F40072AA
:1005A0008A6001688A6890F8303042EA43228A60A3
:1005B00001688A6822F480628A6001688A684069FA
:1005C00042EA8020886010BD0023014000E0FFFF68
:1005D0000000F0FFFEE70000014800F08DBA0000C7
:1005E00008010020014800F087BA000068010020DF
:1005F000014800F081BA0000A8000020016818231B
:10060000CAB2103AB2FBF3F2054B6FF30901032AA9
:100610009B5CC36500D9091D8165084670470000D1
:10062000D622000810B5014600208B698A6A4FF077
:10063000C07453B1B3F5005F15D072B1012A0CD06C
:10064000022A0AD0032A09D104E01AB1012A06D0ED
:10065000022A03D1C96AC90100D5012010BDC96AA7
:10066000A142FAD010BD002AF7D0012AF2D0022A06
:10067000F3D0032AF3D010BD30B50468256825F403
:1006800080252560046863608368402B036803D07D
:1006900099600068C26030BD9A600068C16030BD7A
:1006A000704772B6FEE7000078B50024009490F819
:1006B0003C20012A19D0012280F83C200A68072337
:1006C0000568092A13D9EE680A3A02EB4202934000
:1006D0009E43EE600B788A680A3B03EB43039A4023
:1006E0000368DD682A43DA6010E0022078BD2E69D5
:1006F00002EB420293409E432E610B788A6803EB23
:1007000043039A4003681D692A431A614A681F23FC
:10071000072A13D205686E6B521E02EB82029340C9
:100720009E436E630B790A885B1E92B203EB8303D0
:100730009A4003685D6B2A435A6327E005680D2AD7
:1007400012D22E6BD21F02EB820293409E432E6385
:100750000B790A88DB1F92B203EB83039A4003688C
:100760001D6B2A431A6311E0EE6A0D3A02EB820216
:1007700093409E43EE620B790A880D3B92B203EBE5
:1007800083039A400368DD6A2A43DA62164B0568E0
:10079000144A9D4206D10D68122D03D1556845F4C7
:1007A0008005556005689D4218D10B68102B01D05B
:1007B000112B13D1536843F40003536009681029C7
:1007C0000CD10A490A4A0968B1FBF2F101EB810137
:1007D000490000E0491E00910029FBD180F83C400F
:1007E000002078BD002301400020014018000020B7
:1007F00040420F0070477047704770B504004FF0DB
:10080000000503D0206C002610B107E0012070BD68
:10081000204600F01DF8666484F83C60206CC00639
:1008200010D4206C20F4885040F002002064204650
:10083000FFF73CFE6664206C20F0020040F00100EF
:10084000206400E0012584F83C60284670BD00006B
:1008500070B586B0064614216846FFF77CFD1E4938
:100860003068884235D11D480025016841F4806117
:100870000160006800F48060059018481438016831
:1008800041F0010101600068694600F00100059037
:10089000082000900320CDE90105114800F0B0FACE
:1008A000114C104820608005C4E901050014C4E91A
:1008B0000350400060618000A0614011C4E9070559
:1008C0002046656200F0E8F908B1FFF7EAFEB4637C
:1008D000A66306B070BD000000220140443802400B
:1008E0000000024010640240A8000020F8B5044651
:1008F00000200E46009094F83C10012907D00121F9
:1009000084F83C1021688B68DB0702D011E00220DC
:10091000F8BD8B6843F001038B604049404B096888
:10092000B1FBF3F101EB410100E0491E0091002908
:10093000FBD121688B68DB0503D58B6823F48073BA
:100940008B6021688B68DB075DD0236C40F201650A
:10095000AB4343F4807323644968490505D5216C92
:1009600021F4005141F480512164216CC90404D563
:10097000616C21F00601616400E0606484F83C0071
:10098000A16B2948274DC863A16B28480864A16B57
:100990002748C86421686FF0220008602068416819
:1009A00041F0806141602068816841F4807181601C
:1009B0002168134632464C31A06B00F0D7F96868C5
:1009C0001C49C006206806D0884224D1816811F0F5
:1009D000405F13D01FE08842F8D0174A904203D1FD
:1009E000D1F80423D206F1D0144A904213D1D1F8A1
:1009F000041301F01F011029E8D30CE0816841F0D5
:100A00008041816007E0206C40F010002064606C41
:100A100040F0010060640020F8BD000018000020D4
:100A200040420F00002301401F040008A3040008F7
:100A30008D040008002001400021014000220140F7
:100A40002DE9F0410446876D00F0D8FA064694F887
:100A500035000025022806D08020606584F83450D7
:100A60000120BDE8F0812068016821F016010160D5
:100A70002068416921F080014161206C08B9A06CB7
:100A800020B12068016821F0080101602068016838
:100A900021F0010101600CE000F0B0FA801B052894
:100AA00007D920206065032084F8350084F834508D
:100AB000D7E720680068C007EED194F85C103F20AB
:100AC0008840B860012084F8350084F83450002054
:100AD000C7E790F83510022903D080214165012035
:100AE0007047052180F835100068016821F0010188
:100AF00001600020704700002DE9F84304464FF0E4
:100B00000009CDF8009063484FF41651A56D0068B8
:100B1000B0FBF1F72E6894F85C10082000FA01F1A0
:100B200031420FD021680A6852070BD50A6822F0BB
:100B300004020A6094F85C108840A860606D40F080
:100B40000100606594F85C104FF0010808FA01F0AC
:100B5000304208D021684969090604D5A860606D53
:100B600040F00200606594F85C1004208840304238
:100B700008D021680968890704D5A860606D40F035
:100B80000400606594F85C1010208840304218D052
:100B900021680968090714D5A8602068016849031D
:100BA00004D50068000308D5A16C07E00168C905F9
:100BB00003D4016821F008010160216C09B12046CD
:100BC000884794F85C1020208840304231D021685A
:100BD0000968C9062DD5A86094F835000528206855
:100BE000016806D0490347D5006800031DD4616C35
:100BF0001CE021F0160101602068416921F08001AC
:100C00004161206C08B9A06C20B12068016821F016
:100C10000801016094F85C103F208840A86084F8C7
:100C2000358084F83490216D1FE0E16B09B12046D6
:100C30008847606D00282BD0606DC00714D0052058
:100C400084F835002068016821F0010101600098F6
:100C5000401C0090B84203D820680068C007F6D155
:100C600084F8358084F83490E16C002910D001B00C
:100C70002046BDE8F04308470168C905D5D401689E
:100C800021F01001016084F8358084F83490CCE7BD
:100C9000BDE8F883180000202DE9F041044600F07B
:100CA000ADF906465CB1022084F83500002584F8D1
:100CB00034502068016821F0010101600DE001203D
:100CC000BDE8F08100F09AF9801B052805D92020A5
:100CD0006065032084F83500F2E720680068C007EB
:100CE000F0D12268116820480140D4E9010318437B
:100CF000D4E903363343184363691843A36918439F
:100D0000E3691843236A18430843616A042903D13D
:100D1000D4E90B1319430843106020684069666AE0
:100D200020F0070130460E43012704280CD1A06AA9
:100D30000643E06A40B12046FFF774FC20B1402032
:100D4000606584F83570BAE7206846612046FFF791
:100D500055FC94F85C203F2191408160656584F8E2
:100D600035700020ACE700003F8010F02DE9F04125
:100D70000446866D90F83400002501280DD001202E
:100D800084F8340094F835700020012F07D084F8DF
:100D9000340002252846BDE8F0810220FBE7022747
:100DA00084F8357060652046FFF766FC94F85C10A7
:100DB0003F208840B0602068016841F01601016062
:100DC000206C20B12068016841F0080101602068B2
:100DD000016841F001010160DCE7000070B50446E4
:100DE00000F00CF90546601C02D004480078044469
:100DF00000F004F9401BA042FAD370BD0C000020A3
:100E00002DE9F84FDFF8BCA1002201250AF1040BFF
:100E100003264FF00F090BF1040E00BF0B6805FA13
:100E200002F42340A34270D10F7907F00307012F8A
:100E300001D0022F16D187684FEA420806FA08FC53
:100E400027EA0C07D1F80CC00CFA08FC4CEA070C96
:100E5000C0F808C04768A7430C79C4F30014944055
:100E60003C4344600C79E443A4070AD0C4684FEAC9
:100E7000420C06FA0CF7BC438F6807FA0CF72743BD
:100E8000C7600C7904F00304022C12D1D40800EBE3
:100E9000840CDCF820405707FF0E09FA07F824EA13
:100EA0000804D1F8108008FA07F848EA0408CCF8DA
:100EB000208004684FEA420C06FA0CF7BC430F7915
:100EC00007F0030707FA0CF7274307604C6814F490
:100ED000403F70D03C4C276847F480472760246827
:100EE00022F0030704F480440094384C07EB040C10
:100EF000DCF8084897074FEA177809FA08F7BC4367
:100F0000334FB84202D1002724E054E0314FB842B9
:100F100001D101271EE0304FB84201D1022719E06C
:100F20002E4FB84201D1032714E02D4FB84201D112
:100F300004270FE02B4FB84201D105270AE02A4FC2
:100F4000B84201D1062705E0284FB84201D1072752
:100F500000E0082707FA08F72743CCF80878DAF802
:100F600000405746D1F804C09C435FEACC3C00D512
:100F70001C433C60DBF800405F46D1F804C09C4352
:100F80005FEA8C3C00D51C433C60DEF800407746AD
:100F9000D1F804C09C435FEACC2C00D51C433C60D4
:100FA000084F0C373C68D1F804C09C435FEA8C2C96
:100FB00000D51C433C60521C102AFFF42FAFBDE843
:100FC000F88F0000003C01404438024000300140EE
:100FD000000002400004024000080240000C0240F1
:100FE000001002400014024000180240001C0240A1
:100FF0000AB1816170470904FBE70000014880687D
:10100000704700000C0000200248816802781144FB
:10101000816070470C0000200B4810B5016841F456
:1010200000710160016841F480610160016841F470
:1010300080710160032000F06FF80F2000F006F8C7
:1010400000F024F8002010BD003C024070B50D4DAA
:1010500004464FF47A712878B1FBF0F00A49096828
:10106000B1FBF0F000F00CFB48B9102C07D20022C5
:101070002146501E00F030F800206C6070BD012049
:1010800070BD00000C000020180000200A4808B5C0
:10109000016841F480410160006800F480400090E4
:1010A0000548001F016841F080510160006800F0B0
:1010B0008050009008BD000044380240002809DB41
:1010C00000F01F02012191404009800000F1E02062
:1010D000C0F8001170470000F0B40E4B1B680C46BE
:1010E000C3F30223C3F10705042D00D90425191DFC
:1010F000072901D2002300E0DB1E012606FA05F1D4
:10110000491E214099409E40761E16403143F0BC56
:1011100001F059B80CED00E0064900F0070208683C
:101120004FF6FF03184040EA0220034A10430860CC
:10113000704700000CED00E00000FA052DE9F047D3
:101140000E46050065D0DFF81481D8F80000F7B22C
:1011500000F00700B04207D288F80070D8F800000D
:1011600000F00700B04254D128683D4C810712D5E9
:10117000400703D5206840F4E0502060287800073D
:1011800003D5206840F4604020602068A96820F002
:10119000F000084320602878C0072DD030496868E7
:1011A0000839012812D0022813D0032811D0096869
:1011B000890700292DDA216821F00301014321600C
:1011C000FFF71CFF814641F2883A0EE00968890367
:1011D000EFE709688901ECE7FFF710FFA0EB0901D1
:1011E000514502D90320BDE8F0872068696800F006
:1011F0000C00B0EB810FEFD1D8F80010404601F0A1
:101200000701B14207D90770006800F00700B0423B
:1012100001D00120E7E72878400705D52068E96874
:1012200020F4E050084320602878000706D52068A5
:10123000296920F4604040EAC100206000F038F8DD
:101240002168084AC1F30311515CC840064908608F
:1012500006480068FFF7FAFE0020C4E7003C0240A1
:1012600008380240DE22000818000020100000208C
:101270000448054900680968044AC1F38221515CA9
:10128000C84070471800002008380240EE220008CD
:101290000448054900680968044AC1F34231515CB9
:1012A000C84070471800002008380240EE220008AD
:1012B000154810B5006810F00C02144813D01449FA
:1012C000042A0FD0082A0ED10F4C241F226823684D
:1012D00002F03F025B0207D52068C0F38810A0FB34
:1012E000010106E0084610BD2168C1F38811A1FB89
:1012F00000010023FEF7B8FF2168C1F30141491C3A
:101300004900B0FBF1F010BD083802400024F400A1
:1013100040787D012DE9F84F04006ED02078DFF889
:101320004C93C007A9F104054AD009F104000168F3
:10133000C1F38101012908D00068C0F381000228AF
:101340000AD1D9F80000400206D52868800337D5B5
:1013500060680028E1D033E06068B0F5803F10D0CD
:10136000B0F5A02F286810D020F4803028602868BD
:1013700020F4802028606068A8B1FFF73FFE064691
:101380000DE0286840F48030F4E740F480202860C5
:10139000F7E700BFFFF732FE801B642873D8286888
:1013A0008003F7D50CE0FFF729FE064605E000BFF5
:1013B000FFF724FE801B6428F0D828688003F7D448
:1013C0002078DFF8AC8280074FF0000A3ED5A748AE
:1013D000001D016811F00C0F08D00068C0F38100F7
:1013E00002280BD1D9F80000400207D428688007F2
:1013F00016D5E068012800D112E033E1E068B8B109
:101400000120C8F80000FFF7F9FD064605E000BF1F
:10141000FFF7F4FD801B0228C0D828688007F7D5A5
:101420002868216920F0F80040EAC10028600DE03A
:10143000C8F800A0FFF7E2FD064604E0FFF7DEFD76
:10144000801B02281FD828688007F7D4207800075F
:1014500022D5864F87486169703771B101210160DB
:10146000FFF7CCFD064604E0FFF7C8FD801B02280D
:1014700009D838688007F7D50EE0C0F800A0FFF75C
:10148000BDFD064605E082E0FFF7B8FD801B02289F
:101490007DD838688007F7D42078400768D5DFF812
:1014A000CCB100270BF13C0BDBF80000C0000BD4E3
:1014B000DBF8001041F08051CBF80010DBF80000A1
:1014C000012700F0805000906B4E3068C00510D4AA
:1014D000306840F480703060FFF790FD009005E0C8
:1014E000FFF78CFD0099401A022850D83068C005DB
:1014F000F6D55E4EA0686C3601280FD005283068FE
:1015000010D020F001003060306820F0040030601E
:10151000A068B8B1FFF772FD00900FE0306840F0AE
:101520000100F4E740F004003060F7E7FFF766FDE4
:101530000099411A41F28830814266D830688007AC
:10154000F4D50EE0FFF75AFD009007E0FFF756FDD7
:101550000099411A41F28830814256D8306880079C
:10156000F4D42FB1DBF8001021F08051CBF800103B
:10157000A069C8B33D49091D0968C1F38101022969
:101580004AD00228504607D0C8F8600000E03CE08E
:10159000FFF734FD04463BE04746C8F86000FFF71C
:1015A0002DFD064605E000BFFFF728FD801B022841
:1015B0002BD828688001F7D4D4E907010843A16A31
:1015C0002E4A490802EB0141626A41EA821108434E
:1015D00094F82C1040EA0161C9F800100120386627
:1015E000FFF70CFD044606E03EE000BFFFF706FDF6
:1015F000001B022809D828688001F7D534E000BF15
:10160000FFF7FCFC001B022802D90320BDE8F88F7D
:1016100028688001F4D427E00128F7D0D9F8000029
:10162000E26900F4800191421CD1226A00F03F017E
:10163000914217D147F6C071626A0140B1EB821F37
:1016400010D1A26A4FF0FF3300F4403103EB520295
:10165000B1EB024F06D194F82C1000F07060B0EBA3
:10166000016F01D00120D1E70020CFE7043802400C
:1016700000004742800E4742007000400000FFFF1C
:1016800010B5401EB0F1807F01D3012010BD4FF096
:10169000E02460610F21601700F095FD0020A0613B
:1016A00007202061002010BD70477047F8B5016821
:1016B00004460868CA684B6910F00F0F4FF0000528
:1016C00059D003F0010602F49077374365D0C10783
:1016D00005D0D10503D5216C41F0010121644107FA
:1016E00005D5D90703D0216C41F00201216481079F
:1016F00005D5D90703D0216C41F00401216401070D
:1017000007D502F02001314303D0216C41F00801DC
:101710002164216C00293AD0800604D5900602D5B8
:10172000204600F021FC20684069216CC0F3801045
:10173000090700D460B3204600F0E1FB206840694F
:10174000400621D52068143050E8001F21F04001E8
:1017500040E80012002AF5D1A06BA8B16C490165E0
:10176000A06BFFF7B6F9002811D0A06B016D01B096
:10177000BDE8F040084783060FD593060DD52046F7
:10178000BDE8F84000F0F0BB2046FFF78EFFF8BD43
:101790002046FFF78AFF2564F8BD266B2023012E23
:1017A00079D1C60677D5D60675D508684868009001
:1017B0004869400640D5A16B086840680004000CE9
:1017C000EAD0A28D8242E7D9E085C869B0F5807F72
:1017D0002DD020680C3050E8001F21F4807140E8C3
:1017E0000012002AF5D12068143050E8001F21F0C3
:1017F000010140E80012002AF5D12068143050E8B9
:10180000001F21F0400140E80012002AF5D184F8C1
:101810003E30256320680C3050E8001F21F0100195
:1018200040E80012002AF5D1A06BFFF709F9A08D5E
:10183000E18D401A81B229E0A08DE18D401A81B27C
:10184000E08D0028A8D00029A6D020680C3050E8F0
:10185000002F22F4907240E80026002EF5D1206877
:10186000143050E8002F22F0010240E80026002E3C
:10187000F5D184F83E30256320680C3050E8002F05
:1018800022F0100240E80023002BF5D12046FFF79C
:101890000BFFF8BDFFE705062BD5150629D594F8F3
:1018A0003D002128F5D1A068B0F5805F01D1206905
:1018B000B0B1206A411C2162216800784860E08C48
:1018C000401E0004000CE084E3D12068C16821F0D0
:1018D0008001C1602068C16841F04001C160D8E763
:1018E000206A0088C0F308004860206A801C2062DB
:1018F000E5E74006CDD55006CBD5CA68204622F094
:101900004002CA6084F83D3000F06CF9C1E7000085
:10191000BD1D000870B5040004D094F83D000025FA
:1019200010B106E0012070BD84F83C50204600F064
:1019300023F8242084F83D002068C16821F4005178
:10194000C160204600F070FB2068016921F49041DD
:1019500001612068416921F02A0141612068C16864
:1019600041F40051C1602564202084F83D0084F8D2
:101970003E00002070BD00002DE9F04186B0064613
:1019800014216846FEF7E7FC2D493068884254D19F
:101990002C480024016841F400210160006800F433
:1019A0000020059027481038016841F001010160CE
:1019B0000068022100F00100059003208DE813006B
:1019C00003900820049069461F48FFF719FA204D3C
:1019D0001E484FF4806847052860C5E90174C5E9D1
:1019E000034880156C61C5E906402C6228466C628C
:1019F000FFF752F908B1FEF754FEB563AE63134822
:101A0000144D3030E5E802074020A5E811011148E7
:101A100045F81449AC61EC612C626C62FFF73CF94B
:101A200008B1FEF73EFE7563002201213420AE634B
:101A3000FFF752FB3420FFF741FB06B0BDE8F08111
:101A4000004C00404038024000000240406002402C
:101A5000080100206801002090F83E30202B0ED1B4
:101A600059B152B190F83C30012B08D0012380F8D5
:101A70003C300023036300F05DBB0120704702206F
:101A8000704700002DE9F04130484FF48054650064
:101A900001782F48A600E700412907D0422918D035
:101AA000432929D044293AD0002239E02146012295
:101AB0000446FFF79DFA002229462046FFF798FAD0
:101AC000002231462046FFF793FA0022394620468D
:101AD00037E0294601220546FFF78AFA002221460F
:101AE0002846FFF785FA002231462846FFF780FA9C
:101AF00000223946284624E0314601220646FFF7F7
:101B000077FA002229463046FFF772FA0022214672
:101B10003046FFF76DFA00223946304611E00122C7
:101B200039460746FFF764FA002229463846FFF790
:101B30005FFA002231463846FFF75AFA0022214662
:101B40003846BDE8F041FFF753BA0000000000201E
:101B5000000C02407047000070B5044690F83D004C
:101B6000202836D191B38AB394F83C00012830D0B4
:101B7000012084F83C002162A284E28400252564CF
:101B8000212084F83D00636B1348D863636B1348CE
:101B90001864636B1248D864606B13460565266849
:101BA000606B321DFFF7E2F821686FF040000860BB
:101BB00084F83C502068143050E8001F41F0800148
:101BC00040E80012002AF5D1002070BDFFE7012097
:101BD000FBE70220F9E70000B31E0008F51E00082D
:101BE000CD1D000800BF70477047FEE71FB50021FC
:101BF0001548009101910291124A039102604FF43D
:101C00004032C0E9012101240161047680F82010EE
:101C1000C1628162C461C16080F830404461FEF7F6
:101C2000ECFD08B172B6FEE70320CDE90004694679
:101C300005480294FEF738FD002801D072B6FEE791
:101C40001FBD0000002201401C000020154808B5FF
:101C5000016841F480010160016801F48001009194
:101C6000016841F4001101600068002200F40010D6
:101C7000009011460D20FFF72FFA0D20FFF71EFAF6
:101C8000002211460F20FFF727FA0F20FFF716FA60
:101C9000002201213820FFF71FFABDE80840382054
:101CA000FFF70CBA3038024070B586B01421684690
:101CB000FEF751FB16480024016841F080010160E5
:101CC000016801F080010591016841F001010160A6
:101CD000016801F001010591016841F0080101600E
:101CE00000680C4E00F008004FF47045059000228B
:101CF00029463046FFF77CF901200095CDE9010423
:101D0000694630460394FFF77BF806B070BD0000CB
:101D100030380240000C0240FEE7FEE77047704793
:101D2000FFF772B910B592B030216846FEF713FB89
:101D300014210CA8FEF70FFB17480024016841F09E
:101D400080510160006800F08050119013480168D4
:101D500041F4804101600068069400F480401190D5
:101D60000220009001200390102004906846FFF7A5
:101D7000D1FA08B172B6FEE70F20CDE90C040E943B
:101D80000F9400210CA81094FFF7D8F9002801D077
:101D900072B6FEE712B010BD40380240007000403D
:101DA0000248016841F470010160704788ED00E06D
:101DB0000148FFF77BBC00006400002010B5806B79
:101DC0000021C185C184FFF770FC10BD70B5846B24
:101DD0002068406994F83D10C0F3C0100025212907
:101DE00004D118B1E584204600F0B0F820684069BD
:101DF00094F83E10C0F38010222904D118B1E58573
:101E0000204600F07CF8206C40F010002064204652
:101E1000FFF74BFC70BD10B50146806B096809687F
:101E2000C9052FD40021C18501680C3151E8002F6C
:101E300022F4807241E80023002BF5D101681431AF
:101E400051E8002F22F0010241E80023002BF5D1D8
:101E50000168143151E8002F22F0400241E80023CC
:101E6000002BF5D1202180F83E10016B012909D10A
:101E700001680C3151E8002F22F0100241E80023E4
:101E8000002BF5D1016B012902D0FFF7FBFD10BD3E
:101E9000818DFFF709FC10BD10B5806B016B012926
:101EA00002D0FFF757FE10BD818D4908FFF7FCFBFC
:101EB00010BD10B50146806B09680968C90516D4C4
:101EC0000021C1840168143151E8002F22F0800202
:101ED00041E80023002BF5D101680C3151E8002FB7
:101EE00042F0400241E80023002BF5D110BDFFF77E
:101EF00079FE10BD10B5806BFFF776FE10BD01684E
:101F00000C3151E8002F22F4907241E80023002B9D
:101F1000F5D10168143151E8002F22F0010241E8A7
:101F20000023002BF5D1016B012909D101680C3187
:101F300051E8002F22F0100241E80023002BF5D1D8
:101F4000202180F83E1000210163704701680C31A8
:101F500051E8002F22F0C00241E80023002BF5D108
:101F6000202180F83D10704708B590F83E102229D6
:101F700001D0022008BD82684FF480539A4201D1FB
:101F8000016921B1816A9A421BD04AB10AE0026814
:101F9000816A5268C2F308020A80816A891C08E0DB
:101FA000026972B10268526802F07F020A70816AA7
:101FB000491C8162C18D491E0904090CC18503D0E9
:101FC00019E002685268F1E70168CA6822F020024D
:101FD000CA600168CA6822F48072CA6001684A69EE
:101FE00022F001024A61202180F83E10016B012994
:101FF00003D0FFF747FD002008BD00210163016801
:102000000C3151E8002F22F0100241E80023002B90
:10201000F5D101680A68D20602D50A6849680091BC
:10202000818DFFF741FBE6E770B504460068016962
:10203000E26821F44051114301612169A068E2691D
:1020400008436169114308432168CA6849F20C6377
:102050009A430243CA6020684169A26921F4407131
:102060001143416131492068884202D03049884299
:1020700002D1FFF70DF901E0FFF7FAF8E26900235A
:10208000192164253226B2F5004F626828D0A0FBE2
:102090000101930F9200FEF7E7F80146B0FBF5F05F
:1020A0006FF01802504301EB800006EB0010B0FB0C
:1020B000F5F000F0F002B1FBF5F002EB0012B1FB1D
:1020C000F5F06FF01803584301EB800006EB0010A9
:1020D000B0FBF5F000F00F0021681044886070BD7F
:1020E000A0FB010192185B41FEF7BEF80146B0FB70
:1020F000F5F00201B1FBF5F06FF01803584301EB66
:10210000800006EBC000B0FBF5F000F0F80002EB39
:102110004002B1FBF5F0584301EB800006EBC00034
:10212000B0FBF5F000F00700D6E70000001001401A
:102130000014014038B581628285002513460446AB
:102140000564222084F83E00A26B1B48D063A26B7A
:102150001A481064A26B1A48D064A06B0A46056541
:102160002168A06B091DFEF701FE20680168406828
:10217000009084F83C5020680C3050E8001F41F477
:10218000807140E80012002AF5D12068143050E830
:10219000001F41F0010140E80012002AF5D120683B
:1021A000143050E8001F41F0400140E80012002ABE
:1021B000F5D1002038BD0000171E0008991E000848
:1021C000CD1D0008FEE70907090E002804DB00F119
:1021D000E02080F80014704700F00F0000F1E020CC
:1021E00080F8141D70470000FEF716FFFFF79AFDF8
:1021F000FFF75AFDFFF72AFD1E481D490C2201601A
:102200004FF4E131416000218160C160C0E90412F6
:102210008161C161FFF77EFB08B172B6FEE7FFF78F
:10222000E5FC012214491348FFF716FC40F2D240A6
:1022300000F024F810490522091D0E48FFF78CFC18
:102240000D490C480122891C4838FEF74FFB0A4C07
:102250004FF47A75608800F011F807490522091DCE
:102260000448FFF779FC2846FEF7B8FDF2E70000C6
:10227000004C004064000020000000200A2190FB78
:10228000F1F201FB120390FBF1F00F4A30331371AE
:1022900090FBF1F301FB130390FBF1F03033D370AB
:1022A00090FBF1F301FB130390FBF1F030339370DB
:1022B00090FBF1F301FB130390FBF1F0303353700B
:1022C0003030107070470000040000204FF0407064
:1022D000E1EE100A70470006101600061016000006
:1022E00000000000000001020304060708090000C6
:1022F0000000010203040000182300080000002071
:102300001C000000C4010008342300081C00002049
:102310000C080000E00100080000000000000000C0
:10232000000000000100000010000000000000009C
:042330000024F40091
:040000050800018965
:00000001FF
