:020000040800F2
:1000000088070020A50100088D1E0008AD1D00080E
:100010008B1E00087D0B000865230008000000000F
:10002000000000000000000000000000A31F000806
:10003000C30B000800000000A11F0008A51F000856
:10004000BF010008BF010008BF010008BF01000890
:10005000BF010008BF010008BF010008BF01000880
:10006000BF010008BF010008BF010008BF01000870
:10007000BF010008BF010008810B00088D0B0008BC
:10008000BF010008BF010008BF010008BF01000850
:10009000BF010008BF010008BF010008BF01000840
:1000A000BF010008BF010008BF010008BF01000830
:1000B000BF010008BF010008BF010008BF01000820
:1000C000BF010008BF010008BF010008BF01000810
:1000D000BF01000859230008BF010008BF01000844
:1000E000BF010008BF010008BF01000800F002F8CE
:1000F00000F049F80AA090E8000C82448344AAF179
:100100000107DA4501D100F03EF8AFF2090EBAE876
:100110000F0013F0010F18BFFB1A43F0010318473B
:100120004C2600006C260000103A24BF78C878C125
:10013000FAD8520724BF30C830C144BF04680C60ED
:10014000704700000023002400250026103A28BF35
:1001500078C1FBD8520728BF30C148BF0B60704739
:100160006E2900F0F980702900F00A81732900F0EF
:100170001884002070471FB59DE8030000F052FB73
:100180001FBD10B510BD00F077FC1146FFF7F3FF5F
:1001900002F020FA00F095FC03B4FFF7F2FF03BC75
:1001A00000F0C6FC0948804709480047FEE7FEE723
:1001B000FEE7FEE7FEE7FEE7FEE7FEE7FEE7FEE717
:1001C00004480549054A064B70470000F91F00081E
:1001D000ED00000888010020880700208803002027
:1001E0008803002070B5064600F000FB056806F1A4
:1001F0000B0020F00704B4429CBF002070BD2B46CA
:100200006A68BAB11068A04210D304F108018842AC
:100210003CBF5068586007D351681019416011689D
:10022000091B016058601460101D70BD13465268B0
:10023000002AE7D12146284600F0E0FA0028DED166
:1002400070BD70B50446051F00F0D0FA0068002CA0
:1002500014BF446870BD002C18BFAC423CBF2046A0
:100260006468F8D301680A18AA4218BF456003D130
:100270002A6805461144016028684119A1421CBF43
:100280006C6070BD6168696021680844286070BD59
:100290000FB41CB5074B06AA7B446946009005982D
:1002A00000F055FB0020694600F064FB1CBC5DF8C3
:1002B00014FB0000D906000070B50446856900688B
:1002C000C10601D5302600E02026C00707D070BD4A
:1002D000D4E9012130469047206A401C20626D1EFF
:1002E000F6D570BD70B5044685690078C00707D1A2
:1002F00070BDD4E9012120209047206A401C206273
:100300006D1EF6D570BD70B50C460546012A05D0A8
:100310002878800600D5EA69002302E0012305E081
:100320005B1C934202D2E05C0028F9D1A869E61870
:10033000C01AA861286A184428622846FFF7BCFF43
:1003400004E0D5E9012114F8010B9047B442F8D339
:100350002846FFF7C7FF70BD11680268006A5305A1
:1003600001D508700AE0D30501D5088006E0130620
:1003700003D5C217C1E9000200E008600120704700
:10038000F0B4136802680824C4610C4642F02002ED
:100390000260110502D50E4A7A4402E00C4A7A4402
:1003A0000E32002100F1240505E003F00F061B09C1
:1003B000965D6E54491C002BF7D105782D0703D5A7
:1003C000702C01D101231032F0BC00F061BA0000A2
:1003D000942300002DE9F05F894604464FF0000A9F
:1003E000DFF874B1FB44C0F820A02046E1688847DC
:1003F000002874D0252806D0D4E901219047206A2E
:10040000401C2062F1E700265F462046E1688847ED
:100410002028054607DB312D05D2781910F8200C6D
:1004200008B10643F1E7B00701D526F00406C4F889
:100430001CA00027C4F818A02A2D09D0284602F0D5
:10044000B9F838B304EB8708303DC8F8185019E004
:1004500059F8041B204604EB87029161E168884744
:10046000012F054618D1E069002820DA26F0200681
:100470001DE0D8F8180000EB800005EB4000303894
:10048000C8F818002046E1688847054602F092F84F
:100490000028EED1012F0AD02E2D08D12046E16888
:1004A00088477F1C0546022F46F02006C4DBA06962
:1004B000002803DA404246F00106A061F00701D0AF
:1004C00026F010066C2D0BD0682D09D04C2D39D09C
:1004D0006A2D35D0742D35D07A2D33D016E038E022
:1004E000E1682F4620468847B842054609D16C2F5F
:1004F00026D04FF48060E1680643204688470546D1
:1005000004E06C2F1AD04FF4807006430DB3A5F1B0
:100510004100192802D8203546F400664A4629468B
:10052000204626604E46FFF71BFE80B101280BD007
:10053000F61D26F0070000F1080956E74020E4E721
:100540008020D8E70020D6E706F104094DE72846C9
:1005500052E7206ABDE8F09F70230000014A00F0D6
:1005600025BA00004400002030B505460B462A4657
:1005700013F8014B12F8010B08B1A042F8D01CB1DE
:10058000002802D06D1CF1E7284630BD40EA010387
:10059000024630B59B0710D14FF0013400E008C28D
:1005A00008C91D1B9D4315EAC41FF8D013F0FF01B5
:1005B00002F8011B0DD01B0AF8E711F8013B002BD4
:1005C00002F8013B05D011F8013B002B02F8013B7A
:1005D000F3D130BD10B5431C02E010F8011B71B11E
:1005E0008107FAD14FF0013202C88C1A8C4314EA09
:1005F000C211F9D0C01A0A0603D0C01E10BDC01A1D
:1006000010BD0A0401D0801E10BD0902FCD0401E9E
:1006100010BD40EA010370B59B072ED14FF00136A3
:10062000042A2AD308C810C99D1B9D43121F15EA2E
:10063000C61517D0D8B2E1B2401A50EA056110D100
:1006400098B2A1B2401A50EA05410AD123F07F4086
:1006500024F07F41401A50EA052102D1180EA0EB88
:10066000146070BDA342DBD018BA21BA884201D908
:10067000012070BD4FF0FF3070BD0AB9002070BD81
:1006800010F8013B11F8014B63B1A3420AD1521E8D
:1006900008D010F8013B11F8014B1BB1A34201D166
:1006A000521EEDD1181B70BD421E12F8013F002BE7
:1006B000FBD111F8013B002B02F8013BF9D1704747
:1006C00002F0FF0343EA032242EA024200F002B8CA
:1006D0004FF000020429C0F0128010F0030C00F06B
:1006E0001B80CCF1040CBCF1020F18BF00F8012BE9
:1006F000A8BF20F8022BA1EB0C0100F00DB85FEAB7
:10070000C17C24BF00F8012B00F8012B48BF00F882
:10071000012B70474FF0000200B5134694469646F1
:10072000203922BFA0E80C50A0E80C50B1F1200104
:10073000BFF4F7AF090728BFA0E80C5048BF0CC0B2
:100740005DF804EB890028BF40F8042B08BF704710
:1007500048BF20F8022B11F0804F18BF00F8012B82
:10076000704700004FF0013C50F8042B51F8043B57
:100770009A4221D1A2EB0C03934313EACC1317D175
:1007800050F8042B51F8043B9A4215D1A2EB0C030C
:10079000934313EACC130BD150F8042B51F8043BCC
:1007A0009A4209D1A2EB0C03934313EACC13DBD09A
:1007B0004FF00000704700BFD01A01BAB1FA81F1C2
:1007C00001F0180122FA01F0CB40C1F12001DBB2A7
:1007D000C0B2C01A2CFA01F3D11A914311EAC31125
:1007E000E6D1704770477047704700000048704777
:1007F00030010020704770477047704738B5044695
:100800000A4600206946AFF30080002808BF38BDC3
:1008100002460099204600F0EFF8012038BD012083
:1008200000F004B9F8B5AFF30080054600200C468F
:10083000102000BF0646A819A0420DD932466946CD
:100840000020AFF30080070008BF00F0EFF8009829
:10085000A04218BF0546C419FFF7C8FF0560074648
:10086000F01D20F007004619284600F00AF8B442AF
:1008700008BFF8BDA21B31463868BDE8F84000F05B
:10088000BBB800210160C0E901107047102070471B
:100890002DE9F0470D4699469246044600F124089A
:1008A0000168880604D5E06921F01001216000E0AC
:1008B0000120A84201DD471B00E00027A1697A1949
:1008C00002EB0900081AA0612078C00602D4204675
:1008D000FFF7F2FC002608E0D4E901211AF806002F
:1008E0009047206A401C761C20624E45F4DB20783D
:1008F000C0060AD52046FFF7DFFC06E0D4E9012157
:1009000030209047206A401C2062381EA7F1010762
:10091000F4DC07E0D4E9012118F805009047206ACB
:10092000401C2062281EA5F10105F3DC2046FFF7DC
:10093000D9FC2078000602D50220BDE8F08701200E
:10094000FBE7000001694A1C02610878704700B5A6
:100950008FB0CDE901310021059105497944CDE9F8
:10096000031011466846FFF735FD0FB000BD0000CB
:10097000E5FFFFFF0A6802F8010B0A60704710B537
:10098000436913B1AFF3008001E0FFF7BCFC012025
:1009900010BD127800F124010A7000224A70012271
:1009A000EDE711684FF0FF32E9E700002DE9F04173
:1009B00015460E46040002D12C6804B90BA420464B
:1009C00000F04BF80444207870B127463146384691
:1009D00000F033F80444207810B1002004F8010B33
:1009E00038462C60BDE8F0810027F9E700000000E0
:1009F0000048704728010020034640688C460028C4
:100A000018BF88423CBF03464068F8D318681844B2
:100A1000884207D00CF1030020F00700001D411AA6
:100A2000521A0146081D0A60FFF70BBC10B500F012
:100A300057F8BDE8104000F04DB830B503461D78BA
:100A40001DB10A4603E0AC4201D1181A30BD12F8BC
:100A5000014B002CF7D15B1CF1E730B503461D7844
:100A60003DB10A4612F8014B1CB1AC42FAD15B1CF5
:100A7000F5E7181A30BD70477546FFF7B9FFAE4667
:100A800005006946534620F00700854618B020B59A
:100A9000FFF796FBBDE820404FF000064FF000073F
:100AA0004FF000084FF0000B21F00701AC46ACE816
:100AB000C009ACE8C009ACE8C009ACE8C0098D4683
:100AC000704710B50446AFF300802046BDE81040E3
:100AD000FFF762BB002801D000F02AB87047000081
:100AE00010B5012805D0002103A000F027F801204F
:100AF00010BD09A1F8E7000053494752544D454D38
:100B00003A204F7574206F662068656170206D65AE
:100B10006D6F7279000000003A2048656170206DA9
:100B2000656D6F727920636F7272757074656400A1
:100B300001491820ABBEFEE72600020070B505464D
:100B40000C460A2000E06D1C00F011F835B1287841
:100B50000028F8D102E0641C00F009F814B12078F4
:100B60000028F8D1BDE870400A20AFF3008008B536
:100B700069468DF800000320ABBE08BDFEE700000B
:100B8000014800F0BFB80000E4000020014800F078
:100B9000B9B800008C00002030B590F84050012416
:100BA000AC40C56B6C60046863604368102B0368DD
:100BB00003D099600068C26030BD9A600068C1606F
:100BC00030BD704772B6FEE710B590F821100022D4
:100BD000022905D00421816380F82020012010BD66
:100BE00001680B6823F00E030B6001680B6823F0AB
:100BF00001030B6090F84030C46B012101FA03F34C
:100C0000636080F8211080F82020104610BD00009D
:100C100010B590F821100024022903D0042181632B
:100C200001243DE001680A6822F00E020A600168B2
:100C30000A6822F001020A601A4A0168914201D151
:100C4000012121E0174A1432914201D110211BE009
:100C5000144A2832914201D1891515E0114A3C32DB
:100C6000914201D189140FE00E4A5032914202D1D3
:100C70004FF4803108E00B4A6432914202D14FF4C4
:100C8000801101E04FF08071064A083A516001215D
:100C900080F82110002180F82010416B01B18847B5
:100CA000204610BD0800024010B528B301680A684C
:100CB00022F001020A60026800211160026851609E
:100CC000026891600268D1600C4B026801241A44EA
:100CD0001423B2FBF3F29300094AC0E90F239C40AE
:100CE00054608162C16201634163816380F82110B5
:100CF00080F82010002010BD012010BDF8FFFDBFBE
:100D0000000002402DE9F05FC16B0C6801680B68C0
:100D1000D0F840C0042202FA0CF2494DDFF824A1B9
:100D2000494E4A4FDFF828B1DFF828E122422CD0A3
:100D30005A072AD50A68920603D40A6822F00402E8
:100D40000A600168A94201D1042219E0514501D18C
:100D5000402215E0B14202D14FF4806210E0B94266
:100D600002D14FF480420BE0594502D14FF480226A
:100D700006E0714502D14FF4800201E04FF080623D
:100D80002F4908394A60C16A3BE04FF0020808FA6F
:100D90000CF818EA040F4FF000094FF0010235D0AB
:100DA0005FEA837832D50B689B0605D40B6823F085
:100DB0000A030B6080F821200168A94201D10222B8
:100DC00019E0514501D1202215E0B14202D14FF482
:100DD000007210E0B94202D14FF400520BE05945C5
:100DE00002D14FF4003206E0714502D14FF40012F7
:100DF00001E04FF00072124908394A6080F82090F3
:100E0000816A00291AD0BDE8F05F0847082505FA75
:100E10000CF5254212D01B0710D50B6823F00E03EA
:100E20000B6090F84010C36B02FA01F159608263C5
:100E300080F8212080F82090016BE2E7BDE8F09F68
:100E4000080002401C000240300002404400024002
:100E5000580002406C00024030B528B308C813495E
:100E600014221944B1FBF2F18900C1631049816376
:100E7000022141771A6843F6F0718A43D0E90014E1
:100E80002143D0E902452C432143046921434469AD
:100E900021438469214311431960002141630122E8
:100EA00042770177084630BD012030BDF8FFFDBF15
:100EB0000000024070B5044690F82000002501288B
:100EC0000CD0012084F8200094F821600020012E2D
:100ED00006D084F820000225284670BD022070BD8F
:100EE000022684F82160A0632068066826F00106C7
:100EF00006602046FFF750FEE06A0028206801687F
:100F000002D041F00E0106E021F0040101602068EA
:100F1000016841F00A0101602068016841F00101A7
:100F20000160D9E72DE9F0430023374F0F2566E034
:100F300001229A400A4060D023F00304E619D6F853
:100F400008809C074FEA147C05FA0CF909EA0804AA
:100F5000DFF8B880404502D14FF0000816E0DFF816
:100F6000B080404502D14FF001080FE0DFF8A480C7
:100F7000404502D14FF0020808E0DFF89C80404570
:100F800002D14FF0030801E04FF0040808FA0CF812
:100F9000A04515D1D6F808C02CEA090CC6F808C03F
:100FA0001E4E346894433460341D26689643266090
:100FB000241D266896432660241D266896432660D5
:100FC000FF2A01D8064601E000F104064FEA830437
:100FD00001D9A4F12004D6F800C005FA04F82CEADF
:100FE000080C4FF0040808FA04F84CEA080CC6F89C
:100FF00000C0C46824EA0204C46003F1010331FAAA
:1010000003F295D1BDE8F0830000014000080140E3
:10101000000C014000100140001401400004014098
:101020002DE9F84FDFF8B891002409F1040A0AF11C
:10103000040B23460F270BF1040EC9E00125A54040
:101040002A40AA427DD1674ED1F804C0ACEB060815
:10105000B44532D014DCBCF1030F3AD009DCBCF14A
:10106000000F2AD0BCF1010F1CD0BCF1020F31D10E
:101070001DE0BCF1110F17D0BCF1120F2AD119E0FD
:10108000B8F5881F19D006DCB8F5803F15D0B8F543
:10109000801F1FD111E0B8F5001F0ED0B8F5041F56
:1010A00018D10AE0CB6815E0CB681B1D12E0CB68B5
:1010B00008330FE0CB680C330CE08B682BB1012BAD
:1010C0004FF0080303D0456104E0042302E005610A
:1010D00000E00023FF2A01D8064601E000F10406E3
:1010E0004FEA840501D9A5F12005D6F8008007FA5A
:1010F00005FC28EA0C0803FA05F548EA0508C6F8D5
:1011000000804D68ED0062D5374DAE6946F00106AE
:10111000AE61AD6924F0030605F001050095334D7D
:1011200006EB050CDCF80850A607360F07FA06F8A0
:1011300025EA0805DFF8B880404503D14FF00008E4
:1011400017E044E0DFF8AC80404502D14FF00108E1
:101150000FE0DFF8A480404502D14FF0020808E01C
:10116000DFF89880404502D14FF0030801E04FF0CE
:10117000040808FA06F848EA0508CCF808804D6823
:10118000D9F80060ED034D4601D5164300E09643C3
:101190002E604D68DAF80060AD03554601D5164360
:1011A00000E096432E604D68DBF80060ED025D467E
:1011B00001D5164300E096432E604D68DEF80060CE
:1011C000AD02754601D5164300E096432E60641CBF
:1011D0000D682A46E5407FF431AFBDE8F88F000086
:1011E0000004014000001110001002400000014006
:1011F00000080140000C01400010014000140140B3
:101200008068084000D0012070470AB10161704732
:101210000904FBE7014880687047000034000020A3
:1012200002488168027811448160704734000020D0
:10123000074810B5016841F010010160032000F07B
:1012400085F80F2000F006F800F024F8002010BD0B
:101250000020024070B50D4D04464FF47A71287895
:10126000B1FBF0F00A490968B1FBF0F000F0FCFABC
:1012700048B9102C07D200222146501E00F046F833
:1012800000206C6070BD012070BD000034000020A3
:10129000400000200C4808B5816941F001018161DE
:1012A000816901F001010091C16941F08051C16182
:1012B000C06900F0805000900448416821F0E0616E
:1012C00041F00071416008BD001002400000014083
:1012D00000280DDB00F01F02012191404009800031
:1012E00000F1E020C0F88011BFF34F8FBFF36F8F84
:1012F0007047002809DB00F01F02012191404009DE
:10130000800000F1E020C0F800117047F0B40E4BEF
:101310001B680C46C3F30223C3F10705042D00D953
:101320000425191D072901D2002300E0DB1E012638
:1013300006FA05F1491E214099409E40761E16404E
:101340003143F0BC01F020B90CED00E0064900F09B
:10135000070208684FF6FF03184040EA0220034ADC
:1013600010430860704700000CED00E00000FA0533
:101370002DE9F0470F46050061D0434E306800F07C
:101380000700B84209D2306820F0070038433060C7
:10139000306800F00700B84251D128683B4C810703
:1013A00012D5400703D5606840F4E060606028789B
:1013B000000703D5606840F4605060606068A96809
:1013C00020F0F000084360602878C00728D06868E3
:1013D000012810D02168022810D0890700292EDAB0
:1013E000616821F0030101436160FFF713FF80464C
:1013F00041F288390DE021688903EFE78901EDE7C3
:10140000FFF708FFA0EB0801494502D90320BDE81A
:10141000F0876068696800F00C00B0EB810FEFD1D5
:10142000306800F00700B8420BD9306820F00700A0
:1014300038433060306800F00700B84201D0012026
:10144000E5E72878400705D56068E96820F4E060A2
:10145000084360602878000706D56068296920F491
:10146000605040EAC100606000F038F86168084AE6
:10147000C1F30311515CC840064908600648006882
:10148000FFF7E8FE0020C2E7002002400010024003
:1014900018270008400000203800002004480549B3
:1014A00000684968044AC1F30221515CC840704792
:1014B0004000002000100240282700080448054989
:1014C00000684968044AC1F3C221515CC8407047B2
:1014D00040000020001002402827000812A185B01B
:1014E0000FC98DE80F0014A0144A006804905168D9
:1014F000134801F00C03042B10D0082B0ED1C1F3BC
:101500008343C9031DF803000AD5516804AAC1F337
:101510004041515C0A4A5043B0FBF1F005B07047BE
:1015200008494843FAE700000203040506070809D2
:101530000A0B0C0D0E0F10100102000000100240EB
:1015400000127A0000093D002DE9F84F040070D028
:101550002078C04DC00749D06868C0F381000128D9
:1015600007D06868C0F38100022809D16868C00309
:1015700006D52868800339D560680028E7D035E0B3
:101580006068B0F5803F0BD010B1B0F5A02F11D03E
:10159000286820F480302860286820F4802002E049
:1015A000286840F480302860606890B1FFF732FE10
:1015B00006460AE0286840F480202860F0E700BF73
:1015C000FFF728FE801B642873D828688003F7D5AE
:1015D0000CE0FFF71FFE064605E000BFFFF71AFE0E
:1015E000801B6428F0D828688003F7D420789A4EAE
:1015F00080074FF001094FF0000839D5686810F0F6
:101600000C0F07D06868C0F38100022809D1686810
:10161000C00306D42868800714D52069012808D1A2
:1016200010E02069B0B1C6F80090FFF7F3FD07465F
:1016300005E00AE1FFF7EEFDC01B0228C4D82868C8
:101640008007F7D52868616920F0F80040EAC100FA
:1016500028600DE0C6F80080FFF7DCFD074604E0D7
:10166000FFF7D8FDC01B022823D828688007F7D4CD
:10167000207800072CD57948A169D9B1C0F800902D
:10168000FFF7C8FD074604E0FFF7C4FDC01B0228B2
:101690000FD8686A8007F7D571484FF4FA5100688F
:1016A000B0FBF1F0009000BF0098411E0091FAD20B
:1016B0000EE080E0C0F80080FFF7ACFD074604E0D4
:1016C000FFF7A8FDC01B022875D8686A8007F7D409
:1016D0002078400760D5E8690027C00008D4E86991
:1016E00040F08050E861E869012700F080500090E8
:1016F0005C480168C90513D40168834641F48071D0
:101700000160FFF787FD824606E000BFFFF782FD1C
:10171000A0EB0A0064284ED8DBF80000C005F5D520
:10172000E06801280AD008B1052813D0286A20F003
:1017300001002862286A20F0040002E0286A40F0D4
:1017400001002862E06841F2883B98B1FFF762FD32
:1017500082460BE0286A40F004002862EEE700BFF2
:10176000FFF758FDA0EB0A0159455AD8286A8007AF
:10177000F6D50CE0FFF74EFD824605E0FFF74AFD87
:10178000A0EB0A0159454CD8286A8007F6D41FB14E
:10179000E86920F08050E861E06988B36968C1F3C6
:1017A0008101022944D00228C6F8608004D0FFF7E6
:1017B00031FD044638E034E0FFF72CFD074604E035
:1017C000FFF728FDC01B02282BD828688001F7D41A
:1017D000206AB0F5803F05D16868A16820F4003028
:1017E00008436860D4E908010843696821F474116A
:1017F00008436860C6F86090FFF70CFD044606E0F9
:1018000025E000BFFFF706FD001B022809D8286865
:101810008001F7D51BE000BFFFF7FCFC001B02288E
:1018200002D90320BDE8F88F28688001F4D40EE0C7
:101830000128F7D06868226A00F48031914204D10F
:10184000616A00F47010884201D00120EAE70020AC
:10185000E8E70000001002400000424280044242DB
:10186000400000200070004010B5401EB0F1807FA5
:1018700001D3012010BD4FF0E02460610F216017FB
:1018800000F082FE0020A06107202061002010BD32
:1018900038B5044690F83E0020281CD181B17AB1B9
:1018A00094F83C00012816D0012084F83C00206305
:1018B000204600F019FD002803D1216B012901D039
:1018C000012038BD21680A684A680092CA6842F05F
:1018D0001002CA6038BD022038BD000010B5104C9F
:1018E0003222606801680F483631FFF7D1FF0D489A
:1018F00044300068016821F00401016060680068FC
:1019000000F0F8FA6068322100683630FEF7E0FE39
:10191000606864210068BDE810406830FEF7FABED8
:101920002C0000204800002010B5040014D0242012
:1019300084F83D002068C16821F40051C160204650
:1019400000F060F90020206484F83D0084F83E0037
:1019500044F8300F207310BD012010BD10B50B48A6
:10196000FFF7E2FF094800F01BF9094832224068FE
:10197000016806483631FFF78BFF044844300068A1
:10198000016821F00401016010BD00004800002042
:101990002C000020F8B5026804461068D16853692D
:1019A00010F00F0F4FF0000553D003F0010601F4C3
:1019B000907737435FD0C20705D0CA0503D5226CA4
:1019C00042F001022264420705D5DA0703D0226CF7
:1019D00042F002022264820705D5DA0703D0226CA6
:1019E00042F004022264020707D501F020023243CC
:1019F00003D0226C42F008022264226C002A34D008
:101A0000800604D5880602D5204600F0B5FB206884
:101A10004069216CC0F38010090700D430B3204620
:101A200000F089FB2068416949061BD5416921F016
:101A300040014161A06BA8B158494163A06BFFF719
:101A4000E7F8002811D0A06B416B01B0BDE8F04071
:101A5000084783060FD58B060DD52046BDE8F84014
:101A600000F08ABB2046FFF779FFF8BD2046FFF75C
:101A700075FF2564F8BD266B2023012E52D1C606C2
:101A800050D5CE064ED5106850680090506940067B
:101A90002AD5A16B086840680004000CEAD0A68D26
:101AA0008642E7D9E0858869202818D0D06820F4DC
:101AB0008070D0602068416921F001014161206897
:101AC000416921F04001416184F83E30256320687E
:101AD000C16821F01001C160A06BFFF775F8A08DFF
:101AE000E18D401A81B219E0A08DE18D401A81B2DA
:101AF000E08D0028BED00029BCD0D06820F49070C2
:101B0000D0602068426922F00102426184F83E30D0
:101B100025632068C26822F01002C2602046FFF7E9
:101B2000DDFEF8BD05062BD50D0629D594F83D0040
:101B30002128F6D1A068B0F5805F01D12069B0B14D
:101B4000206A411C2162216800784860E08C401EB8
:101B50000004000CE084E4D12068C16821F0800119
:101B6000C1602068C16841F04001C160F8BD206AD1
:101B70000088C0F308005060206A801C2062E5E7FE
:101B80004006F3D54806F1D5D168204621F0400142
:101B9000D16084F83D3000F007F9F8BD312000082D
:101BA00070B5040004D094F83D00002510B106E0A3
:101BB000012070BD84F83C50204600F045F82420F8
:101BC00084F83D002068C16821F40051C1602046BE
:101BD00000F02EFB2068016921F49041016120682A
:101BE000416921F02A0141612068C16841F4005136
:101BF000C1602564202084F83D0084F83E00002068
:101C000070BD000010B5044600680C49884214D12C
:101C10000B48816921F4804181614FF4C06109481A
:101C2000FFF780F9606BFFF73FF8A06BFFF73CF818
:101C3000BDE810402520FFF74BBB10BD0038014028
:101C40000010024000080140F0B585B000240646AF
:101C5000009401940294039400682C49884252D164
:101C60002B48816941F480418161816901F480419F
:101C70000491816941F0040181618069254D00F082
:101C8000040004904FF400700090022001900320A3
:101C9000039069462846FFF7C3F92815CDE90004EB
:101CA000694628460294FFF7BBF91C4D1A48802765
:101CB00001C5102091C5194845F810496C61AC6107
:101CC000EC61FFF7C9F808B1FEF77CFF75636E623F
:101CD0001148134D1430C5E90004C5E902472C61D1
:101CE0006C61AC612846EC61FFF7B6F808B1FEF70D
:101CF00069FFB5630022114625206E62FFF706FBDF
:101D00002520FFF7F6FA05B0F0BD000000380140CD
:101D1000001002400008014044000240E40000209E
:101D20008C0000207047704770B5044690F83D0065
:101D3000202830D169B362B394F83C0001282AD03E
:101D4000012084F83C002162A284E28400252564FD
:101D5000212084F83D00636B10489862636B104843
:101D6000D862636B0F481863606B1346456326683F
:101D7000606B321DFFF79EF821686FF0400008602D
:101D800084F83C502068416941F0800141610020A5
:101D900070BD012070BD022070BD0000FF20000852
:101DA0002D2100084120000870477047FEE70268B7
:101DB000811D101DFEF7EABB50F8061B091DFEF73A
:101DC000E5BB00007CB50025044600950068144E74
:101DD0000179306800F052F830308DF8000001953C
:101DE00030683221807A30308DF804002068001D80
:101DF000FEF790FC20680BA1001DFEF7C7FB2068D2
:101E000001A9001DFEF750FC206808A1001DFEF787
:101E10004BFC20686946001DFEF746FC7CBD0000B7
:101E20002C0000202B4C45443A0000002C00000000
:101E300001680B7903490A6893720068417910467A
:101E400000F01FB82C00002010B51420FEF7CAF9CE
:101E500000280ED0022181720022C27201228280EB
:101E600001800421C180082141800249C1600249EA
:101E7000016110BD0008014024000020817200F0C3
:101E800093BBC172016909680847FEE7FEE70000DD
:101E900010B5E420FEF7A6F9040022D03221201D5F
:101EA000FEF738FC322104F13600FEF711FC642104
:101EB00004F16800FEF72EFC002084F8CC0084F8C2
:101EC000E000094820600168C4F8D0104168C4F8F7
:101ED000D4108168C4F8D810C068C4F8DC0020466B
:101EE00010BD002010BD000000000020016809693D
:101EF000084700002DE9F0410446363020A1054690
:101F0000FEF732FB0127A8B31DA12846FEF726FBEA
:101F10001CA1FEF723FB0226804635461AA1FEF7D8
:101F200021FC00B900251AA14046FEF71BFC58B160
:101F3000022D20D013A10020FEF710FB804616A131
:101F4000FEF710FC10B102E00125F3E7012613A112
:101F50004046FEF707FC10B1022E0CD000E0002630
:101F600005EB460004EB8000D0F8D0102046BDE819
:101F7000F0410847FFE784F8E070BDE8F081000019
:101F80000D0A00005F0000002B47455400000000D0
:101F90002B534554000000004C4544004445560076
:101FA00070477047FFF73CB910B590B028216846DC
:101FB000FEF7B0FB14210AA8FEF7ACFB022000904C
:101FC0000120049010200024059007946846FFF734
:101FD000BBFA08B172B6FEE70F20CDE90A040C94F3
:101FE0000D9400210AA80E94FFF7C2F9002801D031
:101FF00072B6FEE710B010BD7047000010B50C209F
:10200000FEF7F0F80446FFF743FF01462060096839
:1020100006483022C8602168C1F8DC000020A0809A
:102020000621A01DFEF74CFB204610BDD52400085C
:1020300010B5406A0021C185C184FFF78FFC10BD37
:1020400070B5446A2068406994F83D10C0F3C01030
:102050000025212904D118B1E584204600F083F839
:102060002068406994F83E10C0F38010222904D102
:1020700018B1E585204600F05EF8206C40F01000B5
:1020800020642046FFF76AFC70BD10B50146406A27
:102090000968096889061BD40021C1850168CA68DE
:1020A00022F48072CA6001684A6922F001024A6122
:1020B00001684A6922F040024A61202180F83E10FE
:1020C000016B012904D10168CA6822F01002CA60BC
:1020D000016B012902D0FFF725FE10BD818DFFF7AE
:1020E000FDFB10BD10B5406A016B012902D0FFF75E
:1020F0001AFE10BD818D4908FFF7F0FB10BD10B529
:102100000146406A0968096889060CD40021C18427
:1021100001684A6922F080024A610068C16841F0A2
:102120004001C16010BDFFF73FFE10BD10B5406A11
:10213000FFF73BFE10BD0168CA6822F49072CA60C6
:1021400001684A6922F001024A61016B012904D148
:102150000168CA6822F01002CA60202180F83E108F
:102160000021016370470168CA6822F0C002CA609A
:10217000202180F83D10704708B590F83E102229C4
:1021800001D0022008BD82684FF480539A4201D1E9
:10219000016921B1816A9A421BD04AB10AE0026802
:1021A000816A5268C2F308020A80816A891C08E0C9
:1021B000026972B10268526802F07F020A70816A95
:1021C000491C8162C18D491E0904090CC18503D0D7
:1021D00019E002685268F1E70168CA6822F020023B
:1021E000CA600168CA6822F48072CA6001684A69DC
:1021F00022F001024A61202180F83E10016B012982
:1022000003D0FFF78FFD002008BD002101630168A6
:10221000CA6822F01002CA6001680A68D20602D5B4
:102220000A6849680091818DFFF758FBEBE70000D1
:1022300070B5044600680169E26821F44051114319
:1022400001612169A0680843616908432168CA687F
:1022500041F20C639A430243CA6020684169A26953
:1022600021F44071114341611E492068884202D126
:10227000FFF724F901E0FFF711F900EBC00101EBD2
:102280000012606864218000B2FBF0F3B3FBF1F34D
:102290006FF018067343B2FBF0F5B2FBF0F605EBF6
:1022A0008305322303EB0515B5FBF1F5B6FBF1F61B
:1022B00005F0F00505EB0615B2FBF0F6B2FBF0F009
:1022C000B0FBF1F06FF01802504306EB800003EB17
:1022D0000010B0FBF1F0216800F00F002844886086
:1022E00070BD00000038014038B58162828500254C
:1022F000134604460564222084F83E00A26B13486E
:102300009062A26B1248D062A26B12481063A06B5D
:102310000A4645632168A06B091DFEF7CBFD2068C6
:1023200001684168009184F83C50C16841F48071B3
:10233000C1602068416941F0010141612068416943
:1023400041F040014161002038BD00008B200008B1
:10235000E5200008412000080148FFF71BBB0000F2
:1023600048000020FEE7002100F8CC1F0175084658
:102370007047000070B5044606220DA1001DFEF74F
:1023800048F9010004F1680005460CD00AA1FEF7E7
:10239000FDF8211D2846FEF787F92846BDE8704064
:1023A00007A1FEF781B9BDE8704007A1FEF7EEB8BE
:1023B00030303030303000002B49443A000000000B
:1023C0002B4F4B0D0A0000004552524F523A756E8A
:1023D000646566696E65640D0A00000010B5044608
:1023E000012084F8CC00002084F8E00007A1FEF76B
:1023F000B5F806A10020FEF7B1F805A1FEF7AEF88A
:102400000146201DFEF7C2F8002010BD3A00000072
:102410003C203E0090F8E010683019B102A100BFE6
:10242000FDF736BF03A1FBE72B4552524F520D0A71
:10243000000000002B4F4B0D0A00000010B50446B1
:10244000022084F8CC00002084F8E00005A1FEF70B
:1024500085F804A10020FEF781F80078303820715B
:10246000002010BD3A00000002A2011D6830FDF7F7
:102470000FBF00002B4F4B0D0A00000070B5044643
:10248000032084F8CC00002684F8E0600FA13046D9
:10249000FEF764F80EA10020FEF760F80178002531
:1024A000312901D1267101250078302803D101207E
:1024B00061196D1C087106A10020FEF74FF8007825
:1024C000611930380871002070BD00003A0000002A
:1024D0002C0000002DE9F041032680F8CC60002795
:1024E000054680F8E07016A13846FEF737F815A1CA
:1024F0000020FEF733F801780024312902D10121B0
:1025000029710C460178302902D12919641C0F71F8
:102510000178322903D102212A19641C1171007833
:10252000332802D12819641C067106A10020FEF789
:1025300015F800782919303808710020BDE8F081BD
:102540003A0000002C00000090F8E010683019B14B
:1025500002A100BFFDF79CBE03A1FBE72B45525231
:102560004F520D0A000000002B4F4B0D0A000000D7
:1025700010B590F8CC10034A52F821108847032078
:1025800010BD0000140000200907090E002804DB1C
:1025900000F1E02080F80014704700F00F0000F117
:1025A000E02080F8141D7047817A30F81110C0685F
:1025B000FEF726BE30380A2801D2012070470020DD
:1025C0007047817AC27A30F81110C068FEF71DBEDC
:1025D00000BF704786B0FEF72BFEFFF7E5FC002436
:1025E000434D0094019402940394A86940F00400C0
:1025F000A861A8693F4E00F00400049022460F2114
:102600003046FEF702FE0F2000900120CDE90104C4
:102610000220039069463046FEF702FD686940F0EB
:10262000010068616869002200F001000090114615
:102630000E20FEF76BFE0E20FEF75BFE0022114619
:102640000F20FEF763FE0F20FEF753FE2B482A49AA
:1026500001604FF4E131C0E901140C21C460C0E90C
:1026600004418461C461FFF79BFA08B172B6FEE7CA
:10267000FFF7EAFB224C2060FFF7C0FC1F4D214909
:10268000883560602960204969602049A960204937
:10269000E960204929610168322218483631FFF784
:1026A000F7F8A5F144000068016821F00401016019
:1026B0006068016891F8CC100429F9D255F821100E
:1026C000884760680068FFF711FC60680068683040
:1026D000FDF780FF82B26068016808486831FFF743
:1026E00023FB61680420096881F8CC00E0E7000062
:1026F000001002400008014000380140480000205E
:102700002C000020AF1D0008B91D0008C51D0008E1
:10271000311E0008D1250008000000000000000064
:102720000102030406070809000000000102030477
:1027300030313233343536373839414243444546F7
:1027400040305800303132333435363738396162F1
:1027500063646566403078000400000800000000F3
:102760000000000200010000100000008C2700089B
:10277000000000204800000028010008D4270008BD
:1027800048000020400700004401000867230008BB
:10279000DD2300083D2400087D2400087125000881
:1027A000752300081524000869240008492500083D
:1027B000C3250008A9250008000000000000000053
:1027C0000100000010000000000000000024F400E0
:0427D0000000000005
:04000005080000ED02
:00000001FF
